{
  "contractName": "BaseToken",
  "abi": [
    {
      "inputs": [],
      "stateMutability": "nonpayable",
      "type": "constructor"
    },
    {
      "anonymous": false,
      "inputs": [
        {
          "indexed": true,
          "internalType": "address",
          "name": "_owner",
          "type": "address"
        },
        {
          "indexed": true,
          "internalType": "address",
          "name": "_spender",
          "type": "address"
        },
        {
          "indexed": false,
          "internalType": "uint256",
          "name": "_value",
          "type": "uint256"
        }
      ],
      "name": "Approval",
      "type": "event"
    },
    {
      "anonymous": false,
      "inputs": [
        {
          "indexed": true,
          "internalType": "address",
          "name": "_from",
          "type": "address"
        },
        {
          "indexed": true,
          "internalType": "address",
          "name": "_to",
          "type": "address"
        },
        {
          "indexed": false,
          "internalType": "uint256",
          "name": "_value",
          "type": "uint256"
        }
      ],
      "name": "Transfer",
      "type": "event"
    },
    {
      "inputs": [],
      "name": "decimals",
      "outputs": [
        {
          "internalType": "uint8",
          "name": "",
          "type": "uint8"
        }
      ],
      "stateMutability": "view",
      "type": "function"
    },
    {
      "inputs": [],
      "name": "fundsWallet",
      "outputs": [
        {
          "internalType": "address payable",
          "name": "",
          "type": "address"
        }
      ],
      "stateMutability": "view",
      "type": "function"
    },
    {
      "inputs": [],
      "name": "name",
      "outputs": [
        {
          "internalType": "string",
          "name": "",
          "type": "string"
        }
      ],
      "stateMutability": "view",
      "type": "function"
    },
    {
      "inputs": [],
      "name": "symbol",
      "outputs": [
        {
          "internalType": "string",
          "name": "",
          "type": "string"
        }
      ],
      "stateMutability": "view",
      "type": "function"
    },
    {
      "inputs": [],
      "name": "totalSupplyVal",
      "outputs": [
        {
          "internalType": "uint256",
          "name": "",
          "type": "uint256"
        }
      ],
      "stateMutability": "view",
      "type": "function"
    },
    {
      "inputs": [],
      "name": "version",
      "outputs": [
        {
          "internalType": "string",
          "name": "",
          "type": "string"
        }
      ],
      "stateMutability": "view",
      "type": "function"
    },
    {
      "inputs": [
        {
          "internalType": "address",
          "name": "_to",
          "type": "address"
        },
        {
          "internalType": "uint256",
          "name": "_value",
          "type": "uint256"
        }
      ],
      "name": "transfer",
      "outputs": [
        {
          "internalType": "bool",
          "name": "success",
          "type": "bool"
        }
      ],
      "stateMutability": "nonpayable",
      "type": "function"
    },
    {
      "inputs": [],
      "name": "totalSupply",
      "outputs": [
        {
          "internalType": "uint256",
          "name": "supply",
          "type": "uint256"
        }
      ],
      "stateMutability": "view",
      "type": "function"
    },
    {
      "inputs": [
        {
          "internalType": "uint256",
          "name": "_amount",
          "type": "uint256"
        }
      ],
      "name": "transferEthToOwner",
      "outputs": [
        {
          "internalType": "bool",
          "name": "success",
          "type": "bool"
        }
      ],
      "stateMutability": "payable",
      "type": "function"
    },
    {
      "inputs": [
        {
          "internalType": "address",
          "name": "_from",
          "type": "address"
        },
        {
          "internalType": "address",
          "name": "_to",
          "type": "address"
        },
        {
          "internalType": "uint256",
          "name": "_value",
          "type": "uint256"
        }
      ],
      "name": "transferFrom",
      "outputs": [
        {
          "internalType": "bool",
          "name": "success",
          "type": "bool"
        }
      ],
      "stateMutability": "nonpayable",
      "type": "function"
    },
    {
      "inputs": [
        {
          "internalType": "address",
          "name": "_from",
          "type": "address"
        },
        {
          "internalType": "address",
          "name": "_to",
          "type": "address"
        },
        {
          "internalType": "address",
          "name": "_spender",
          "type": "address"
        },
        {
          "internalType": "uint256",
          "name": "_value",
          "type": "uint256"
        }
      ],
      "name": "transferFromWithSpender",
      "outputs": [
        {
          "internalType": "bool",
          "name": "success",
          "type": "bool"
        }
      ],
      "stateMutability": "nonpayable",
      "type": "function"
    },
    {
      "inputs": [
        {
          "internalType": "address",
          "name": "_owner",
          "type": "address"
        }
      ],
      "name": "balanceOf",
      "outputs": [
        {
          "internalType": "uint256",
          "name": "_balance",
          "type": "uint256"
        }
      ],
      "stateMutability": "view",
      "type": "function"
    },
    {
      "inputs": [
        {
          "internalType": "address",
          "name": "_spender",
          "type": "address"
        },
        {
          "internalType": "uint256",
          "name": "_value",
          "type": "uint256"
        }
      ],
      "name": "approve",
      "outputs": [
        {
          "internalType": "bool",
          "name": "success",
          "type": "bool"
        }
      ],
      "stateMutability": "nonpayable",
      "type": "function"
    },
    {
      "inputs": [
        {
          "internalType": "address",
          "name": "_spender",
          "type": "address"
        },
        {
          "internalType": "address",
          "name": "_owner",
          "type": "address"
        },
        {
          "internalType": "uint256",
          "name": "_value",
          "type": "uint256"
        }
      ],
      "name": "approveSpender",
      "outputs": [
        {
          "internalType": "bool",
          "name": "success",
          "type": "bool"
        }
      ],
      "stateMutability": "nonpayable",
      "type": "function"
    },
    {
      "inputs": [
        {
          "internalType": "address",
          "name": "_owner",
          "type": "address"
        },
        {
          "internalType": "address",
          "name": "_spender",
          "type": "address"
        }
      ],
      "name": "allowance",
      "outputs": [
        {
          "internalType": "uint256",
          "name": "remaining",
          "type": "uint256"
        }
      ],
      "stateMutability": "view",
      "type": "function"
    }
  ],
  "bytecode": "0x60806040526040518060400160405280600381526020017f312e300000000000000000000000000000000000000000000000000000000000815250600690816200004a919062000428565b503480156200005857600080fd5b5068056bc75e2d6310000060028190555033600760006101000a81548173ffffffffffffffffffffffffffffffffffffffff021916908373ffffffffffffffffffffffffffffffffffffffff160217905550600254600080600760009054906101000a900473ffffffffffffffffffffffffffffffffffffffff1673ffffffffffffffffffffffffffffffffffffffff1673ffffffffffffffffffffffffffffffffffffffff168152602001908152602001600020819055506040518060400160405280600981526020017f506f6b656d6f6e544400000000000000000000000000000000000000000000008152506003908162000157919062000428565b506040518060400160405280600481526020017f504b544400000000000000000000000000000000000000000000000000000000815250600490816200019e919062000428565b506127106008819055506200050f565b600081519050919050565b7f4e487b7100000000000000000000000000000000000000000000000000000000600052604160045260246000fd5b7f4e487b7100000000000000000000000000000000000000000000000000000000600052602260045260246000fd5b600060028204905060018216806200023057607f821691505b602082108103620002465762000245620001e8565b5b50919050565b60008190508160005260206000209050919050565b60006020601f8301049050919050565b600082821b905092915050565b600060088302620002b07fffffffffffffffffffffffffffffffffffffffffffffffffffffffffffffffff8262000271565b620002bc868362000271565b95508019841693508086168417925050509392505050565b6000819050919050565b6000819050919050565b60006200030962000303620002fd84620002d4565b620002de565b620002d4565b9050919050565b6000819050919050565b6200032583620002e8565b6200033d620003348262000310565b8484546200027e565b825550505050565b600090565b6200035462000345565b620003618184846200031a565b505050565b5b8181101562000389576200037d6000826200034a565b60018101905062000367565b5050565b601f821115620003d857620003a2816200024c565b620003ad8462000261565b81016020851015620003bd578190505b620003d5620003cc8562000261565b83018262000366565b50505b505050565b600082821c905092915050565b6000620003fd60001984600802620003dd565b1980831691505092915050565b6000620004188383620003ea565b9150826002028217905092915050565b6200043382620001ae565b67ffffffffffffffff8111156200044f576200044e620001b9565b5b6200045b825462000217565b620004688282856200038d565b600060209050601f831160018114620004a057600084156200048b578287015190505b6200049785826200040a565b86555062000507565b601f198416620004b0866200024c565b60005b82811015620004da57848901518255600182019150602085019450602081019050620004b3565b86831015620004fa5784890151620004f6601f891682620003ea565b8355505b6001600288020188555050505b505050505050565b611794806200051f6000396000f3fe6080604052600436106100e85760003560e01c806341ad765c1161008a578063a9059cbb11610059578063a9059cbb14610320578063b73fd7921461035d578063ce7c5d7f14610388578063dd62ed3e146103b8576100e8565b806341ad765c1461025057806354fd4d501461028d57806370a08231146102b857806395d89b41146102f5576100e8565b80632194f3a2116100c65780632194f3a21461018057806322604de2146101ab57806323b872dd146101e8578063313ce56714610225576100e8565b806306fdde03146100ed578063095ea7b31461011857806318160ddd14610155575b600080fd5b3480156100f957600080fd5b506101026103f5565b60405161010f91906111b5565b60405180910390f35b34801561012457600080fd5b5061013f600480360381019061013a9190611270565b610483565b60405161014c91906112cb565b60405180910390f35b34801561016157600080fd5b5061016a610575565b60405161017791906112f5565b60405180910390f35b34801561018c57600080fd5b5061019561057f565b6040516101a29190611331565b60405180910390f35b3480156101b757600080fd5b506101d260048036038101906101cd919061134c565b6105a5565b6040516101df91906112cb565b60405180910390f35b3480156101f457600080fd5b5061020f600480360381019061020a919061134c565b610698565b60405161021c91906112cb565b60405180910390f35b34801561023157600080fd5b5061023a61090a565b60405161024791906113bb565b60405180910390f35b34801561025c57600080fd5b50610277600480360381019061027291906113d6565b61091d565b60405161028491906112cb565b60405180910390f35b34801561029957600080fd5b506102a2610c4f565b6040516102af91906111b5565b60405180910390f35b3480156102c457600080fd5b506102df60048036038101906102da919061143d565b610cdd565b6040516102ec91906112f5565b60405180910390f35b34801561030157600080fd5b5061030a610d25565b60405161031791906111b5565b60405180910390f35b34801561032c57600080fd5b5061034760048036038101906103429190611270565b610db3565b60405161035491906112cb565b60405180910390f35b34801561036957600080fd5b50610372611024565b60405161037f91906112f5565b60405180910390f35b6103a2600480360381019061039d919061146a565b61102a565b6040516103af91906112cb565b60405180910390f35b3480156103c457600080fd5b506103df60048036038101906103da9190611497565b61109e565b6040516103ec91906112f5565b60405180910390f35b6003805461040290611506565b80601f016020809104026020016040519081016040528092919081815260200182805461042e90611506565b801561047b5780601f106104505761010080835404028352916020019161047b565b820191906000526020600020905b81548152906001019060200180831161045e57829003601f168201915b505050505081565b600081600160003373ffffffffffffffffffffffffffffffffffffffff1673ffffffffffffffffffffffffffffffffffffffff16815260200190815260200160002060008573ffffffffffffffffffffffffffffffffffffffff1673ffffffffffffffffffffffffffffffffffffffff168152602001908152602001600020819055508273ffffffffffffffffffffffffffffffffffffffff163373ffffffffffffffffffffffffffffffffffffffff167f8c5be1e5ebec7d5bd14f71427d1e84f3dd0314c0f7b2291e5b200ac8c7c3b9258460405161056391906112f5565b60405180910390a36001905092915050565b6000600254905090565b600760009054906101000a900473ffffffffffffffffffffffffffffffffffffffff1681565b600081600160008573ffffffffffffffffffffffffffffffffffffffff1673ffffffffffffffffffffffffffffffffffffffff16815260200190815260200160002060008673ffffffffffffffffffffffffffffffffffffffff1673ffffffffffffffffffffffffffffffffffffffff168152602001908152602001600020819055508373ffffffffffffffffffffffffffffffffffffffff168373ffffffffffffffffffffffffffffffffffffffff167f8c5be1e5ebec7d5bd14f71427d1e84f3dd0314c0f7b2291e5b200ac8c7c3b9258460405161068591906112f5565b60405180910390a3600190509392505050565b60008082116106dc576040517f08c379a00000000000000000000000000000000000000000000000000000000081526004016106d3906115a9565b60405180910390fd5b816000808673ffffffffffffffffffffffffffffffffffffffff1673ffffffffffffffffffffffffffffffffffffffff16815260200190815260200160002054101561075d576040517f08c379a00000000000000000000000000000000000000000000000000000000081526004016107549061163b565b60405180910390fd5b816000808673ffffffffffffffffffffffffffffffffffffffff1673ffffffffffffffffffffffffffffffffffffffff16815260200190815260200160002060008282546107ab919061168a565b92505081905550816000808573ffffffffffffffffffffffffffffffffffffffff1673ffffffffffffffffffffffffffffffffffffffff168152602001908152602001600020600082825461080091906116be565b9250508190555081600160008673ffffffffffffffffffffffffffffffffffffffff1673ffffffffffffffffffffffffffffffffffffffff16815260200190815260200160002060008573ffffffffffffffffffffffffffffffffffffffff1673ffffffffffffffffffffffffffffffffffffffff1681526020019081526020016000206000828254610893919061168a565b925050819055508273ffffffffffffffffffffffffffffffffffffffff168473ffffffffffffffffffffffffffffffffffffffff167fddf252ad1be2c89b69c2b068fc378daa952ba7f163c4a11628f55a4df523b3ef846040516108f791906112f5565b60405180910390a3600190509392505050565b600560009054906101000a900460ff1681565b6000808211610961576040517f08c379a0000000000000000000000000000000000000000000000000000000008152600401610958906115a9565b60405180910390fd5b816000808773ffffffffffffffffffffffffffffffffffffffff1673ffffffffffffffffffffffffffffffffffffffff1681526020019081526020016000205410156109e2576040517f08c379a00000000000000000000000000000000000000000000000000000000081526004016109d99061163b565b60405180910390fd5b81600160008773ffffffffffffffffffffffffffffffffffffffff1673ffffffffffffffffffffffffffffffffffffffff16815260200190815260200160002060008573ffffffffffffffffffffffffffffffffffffffff1673ffffffffffffffffffffffffffffffffffffffff168152602001908152602001600020541015610aa1576040517f08c379a0000000000000000000000000000000000000000000000000000000008152600401610a989061173e565b60405180910390fd5b816000808773ffffffffffffffffffffffffffffffffffffffff1673ffffffffffffffffffffffffffffffffffffffff1681526020019081526020016000206000828254610aef919061168a565b92505081905550816000808673ffffffffffffffffffffffffffffffffffffffff1673ffffffffffffffffffffffffffffffffffffffff1681526020019081526020016000206000828254610b4491906116be565b9250508190555081600160008773ffffffffffffffffffffffffffffffffffffffff1673ffffffffffffffffffffffffffffffffffffffff16815260200190815260200160002060008573ffffffffffffffffffffffffffffffffffffffff1673ffffffffffffffffffffffffffffffffffffffff1681526020019081526020016000206000828254610bd7919061168a565b925050819055508373ffffffffffffffffffffffffffffffffffffffff168573ffffffffffffffffffffffffffffffffffffffff167fddf252ad1be2c89b69c2b068fc378daa952ba7f163c4a11628f55a4df523b3ef84604051610c3b91906112f5565b60405180910390a360019050949350505050565b60068054610c5c90611506565b80601f0160208091040260200160405190810160405280929190818152602001828054610c8890611506565b8015610cd55780601f10610caa57610100808354040283529160200191610cd5565b820191906000526020600020905b815481529060010190602001808311610cb857829003601f168201915b505050505081565b60008060008373ffffffffffffffffffffffffffffffffffffffff1673ffffffffffffffffffffffffffffffffffffffff168152602001908152602001600020549050919050565b60048054610d3290611506565b80601f0160208091040260200160405190810160405280929190818152602001828054610d5e90611506565b8015610dab5780601f10610d8057610100808354040283529160200191610dab565b820191906000526020600020905b815481529060010190602001808311610d8e57829003601f168201915b505050505081565b6000808211610df7576040517f08c379a0000000000000000000000000000000000000000000000000000000008152600401610dee906115a9565b60405180910390fd5b816000803373ffffffffffffffffffffffffffffffffffffffff1673ffffffffffffffffffffffffffffffffffffffff168152602001908152602001600020541015610e78576040517f08c379a0000000000000000000000000000000000000000000000000000000008152600401610e6f9061163b565b60405180910390fd5b816000803373ffffffffffffffffffffffffffffffffffffffff1673ffffffffffffffffffffffffffffffffffffffff1681526020019081526020016000206000828254610ec6919061168a565b92505081905550816000808573ffffffffffffffffffffffffffffffffffffffff1673ffffffffffffffffffffffffffffffffffffffff1681526020019081526020016000206000828254610f1b91906116be565b9250508190555081600160008573ffffffffffffffffffffffffffffffffffffffff1673ffffffffffffffffffffffffffffffffffffffff16815260200190815260200160002060003373ffffffffffffffffffffffffffffffffffffffff1673ffffffffffffffffffffffffffffffffffffffff1681526020019081526020016000206000828254610fae91906116be565b925050819055508273ffffffffffffffffffffffffffffffffffffffff163373ffffffffffffffffffffffffffffffffffffffff167fddf252ad1be2c89b69c2b068fc378daa952ba7f163c4a11628f55a4df523b3ef8460405161101291906112f5565b60405180910390a36001905092915050565b60025481565b6000600760009054906101000a900473ffffffffffffffffffffffffffffffffffffffff1673ffffffffffffffffffffffffffffffffffffffff166108fc839081150290604051600060405180830381858888f19350505050158015611094573d6000803e3d6000fd5b5060019050919050565b6000600160008473ffffffffffffffffffffffffffffffffffffffff1673ffffffffffffffffffffffffffffffffffffffff16815260200190815260200160002060008373ffffffffffffffffffffffffffffffffffffffff1673ffffffffffffffffffffffffffffffffffffffff16815260200190815260200160002054905092915050565b600081519050919050565b600082825260208201905092915050565b60005b8381101561115f578082015181840152602081019050611144565b60008484015250505050565b6000601f19601f8301169050919050565b600061118782611125565b6111918185611130565b93506111a1818560208601611141565b6111aa8161116b565b840191505092915050565b600060208201905081810360008301526111cf818461117c565b905092915050565b600080fd5b600073ffffffffffffffffffffffffffffffffffffffff82169050919050565b6000611207826111dc565b9050919050565b611217816111fc565b811461122257600080fd5b50565b6000813590506112348161120e565b92915050565b6000819050919050565b61124d8161123a565b811461125857600080fd5b50565b60008135905061126a81611244565b92915050565b60008060408385031215611287576112866111d7565b5b600061129585828601611225565b92505060206112a68582860161125b565b9150509250929050565b60008115159050919050565b6112c5816112b0565b82525050565b60006020820190506112e060008301846112bc565b92915050565b6112ef8161123a565b82525050565b600060208201905061130a60008301846112e6565b92915050565b600061131b826111dc565b9050919050565b61132b81611310565b82525050565b60006020820190506113466000830184611322565b92915050565b600080600060608486031215611365576113646111d7565b5b600061137386828701611225565b935050602061138486828701611225565b92505060406113958682870161125b565b9150509250925092565b600060ff82169050919050565b6113b58161139f565b82525050565b60006020820190506113d060008301846113ac565b92915050565b600080600080608085870312156113f0576113ef6111d7565b5b60006113fe87828801611225565b945050602061140f87828801611225565b935050604061142087828801611225565b92505060606114318782880161125b565b91505092959194509250565b600060208284031215611453576114526111d7565b5b600061146184828501611225565b91505092915050565b6000602082840312156114805761147f6111d7565b5b600061148e8482850161125b565b91505092915050565b600080604083850312156114ae576114ad6111d7565b5b60006114bc85828601611225565b92505060206114cd85828601611225565b9150509250929050565b7f4e487b7100000000000000000000000000000000000000000000000000000000600052602260045260246000fd5b6000600282049050600182168061151e57607f821691505b602082108103611531576115306114d7565b5b50919050565b7f76616c7565206973206c6f776572207468616e20312c20796f752063616e742060008201527f7472616e73666572000000000000000000000000000000000000000000000000602082015250565b6000611593602883611130565b915061159e82611537565b604082019050919050565b600060208201905081810360008301526115c281611586565b9050919050565b7f73656e6465722076616c7565206e6565647320746f206265206869676865722060008201527f7468616e2073656e64696e672076616c75650000000000000000000000000000602082015250565b6000611625603283611130565b9150611630826115c9565b604082019050919050565b6000602082019050818103600083015261165481611618565b9050919050565b7f4e487b7100000000000000000000000000000000000000000000000000000000600052601160045260246000fd5b60006116958261123a565b91506116a08361123a565b92508282039050818111156116b8576116b761165b565b5b92915050565b60006116c98261123a565b91506116d48361123a565b92508282019050808211156116ec576116eb61165b565b5b92915050565b7f616c6c6f7765642076616c7565206372697465726961206e65766572206d6574600082015250565b6000611728602083611130565b9150611733826116f2565b602082019050919050565b600060208201905081810360008301526117578161171b565b905091905056fea264697066735822122023cc40d44c3dd36117353e4e42f05f742da0bd71c8200d345d8ff82b5e497a8064736f6c63430008110033",
  "immutableReferences": {},
  "source": "// SPDX-License-Identifier: MIT\npragma solidity ^0.8.7;\n\nimport \"./Token.sol\";\n\ncontract BaseToken is Token {\n\n    mapping(address => uint) balances;\n    mapping(address => mapping(address => uint)) allowed;\n    uint256 public totalSupplyVal;\n    string public name;\n    string public symbol;\n    uint8 public decimals;\n    string public version = \"1.0\";\n    address payable public fundsWallet;\n    uint256 uintOfEthCanBuy;\n\n    event Transfer(address indexed _from, address indexed _to, uint256 _value);\n    event Approval(address indexed _owner, address indexed _spender, uint256 _value);\n\n    constructor() {\n        totalSupplyVal = 100 ether;\n        fundsWallet = payable(msg.sender);\n        balances[fundsWallet] = totalSupplyVal;\n        name = \"PokemonTD\";\n        symbol = \"PKTD\";\n        uintOfEthCanBuy = 10000;\n    }\n\n    function transfer(address _to, uint256 _value) public override returns (bool success) {\n        require(_value > 0, \"value is lower than 1, you cant transfer\");\n        require(balances[msg.sender] >= _value ,\"sender value needs to be higher than sending value\");\n        balances[msg.sender] -= _value;\n        balances[_to] += _value;\n        allowed[_to][msg.sender] += _value;\n        emit Transfer(msg.sender, _to, _value);\n        return true;\n    }\n\n    function totalSupply() public override view returns (uint256 supply) {\n        return totalSupplyVal;\n    }\n\n    function transferEthToOwner(uint256 _amount) public payable override returns (bool success) {\n        fundsWallet.transfer(_amount);\n        return true;\n    }\n\n    function transferFrom(address _from, address _to, uint256 _value) public override returns(bool success) {\n        require(_value > 0, \"value is lower than 1, you cant transfer\");\n        require(balances[_from] >= _value ,\"sender value needs to be higher than sending value\");\n\n        balances[_from] -= _value;\n        balances[_to] += _value;\n\n        //check a way to implement struct here\n        allowed[_from][_to] -= _value;\n        emit Transfer(_from, _to, _value);\n\n        return true;\n    }\n\n    function transferFromWithSpender(address _from, address _to, address _spender, uint256 _value) public override returns(bool success) {\n        require(_value > 0, \"value is lower than 1, you cant transfer\");\n        require(balances[_from] >= _value ,\"sender value needs to be higher than sending value\");\n        require(allowed[_from][_spender] >= _value, \"allowed value criteria never met\");\n\n        balances[_from] -= _value;\n        balances[_to] += _value;\n\n        //check a way to implement struct here\n        allowed[_from][_spender] -= _value;\n        emit Transfer(_from, _to, _value);\n\n        return true;\n    }\n\n    function balanceOf(address _owner) public view override returns(uint256 _balance) {\n        return balances[_owner];\n    }\n\n    function approve(address _spender, uint256 _value) public override returns(bool success) {\n        allowed[msg.sender][_spender] = _value;\n        emit Approval(msg.sender, _spender, _value);\n        return true;\n    }\n\n    function approveSpender(address _spender, address _owner, uint256 _value) public returns(bool success) {\n        allowed[_owner][_spender] = _value;\n        emit Approval(_owner, _spender, _value);\n        return true;\n    }\n\n    function allowance(address _owner, address _spender) public override view returns(uint256 remaining){\n        return allowed[_owner][_spender];\n    }\n\n}",
  "sourcePath": "/Volumes/Development/NewLearning/GamifiedTodoList/todo-gamified-token/contracts/BaseToken.sol",
  "compiler": {
    "name": "solc",
    "version": "0.8.17+commit.8df45f5f.Emscripten.clang"
  },
  "schemaVersion": "3.4.11",
  "updatedAt": "2023-02-01T18:29:56.741Z",
  "devdoc": {
    "kind": "dev",
    "methods": {},
    "version": 1
  },
  "userdoc": {
    "kind": "user",
    "methods": {},
    "version": 1
  }
}