{
  "contractName": "BaseToken",
  "abi": [
    {
      "inputs": [],
      "stateMutability": "nonpayable",
      "type": "constructor"
    },
    {
      "anonymous": false,
      "inputs": [
        {
          "indexed": true,
          "internalType": "address",
          "name": "_owner",
          "type": "address"
        },
        {
          "indexed": true,
          "internalType": "address",
          "name": "_spender",
          "type": "address"
        },
        {
          "indexed": false,
          "internalType": "uint256",
          "name": "_value",
          "type": "uint256"
        }
      ],
      "name": "Approval",
      "type": "event"
    },
    {
      "anonymous": false,
      "inputs": [
        {
          "indexed": true,
          "internalType": "address",
          "name": "_from",
          "type": "address"
        },
        {
          "indexed": true,
          "internalType": "address",
          "name": "_to",
          "type": "address"
        },
        {
          "indexed": false,
          "internalType": "uint256",
          "name": "_value",
          "type": "uint256"
        }
      ],
      "name": "Transfer",
      "type": "event"
    },
    {
      "inputs": [],
      "name": "_name",
      "outputs": [
        {
          "internalType": "string",
          "name": "",
          "type": "string"
        }
      ],
      "stateMutability": "view",
      "type": "function"
    },
    {
      "inputs": [],
      "name": "_symbol",
      "outputs": [
        {
          "internalType": "string",
          "name": "",
          "type": "string"
        }
      ],
      "stateMutability": "view",
      "type": "function"
    },
    {
      "inputs": [],
      "name": "fundsWallet",
      "outputs": [
        {
          "internalType": "address payable",
          "name": "",
          "type": "address"
        }
      ],
      "stateMutability": "view",
      "type": "function"
    },
    {
      "inputs": [],
      "name": "totalSupplyVal",
      "outputs": [
        {
          "internalType": "uint256",
          "name": "",
          "type": "uint256"
        }
      ],
      "stateMutability": "view",
      "type": "function"
    },
    {
      "inputs": [],
      "name": "version",
      "outputs": [
        {
          "internalType": "string",
          "name": "",
          "type": "string"
        }
      ],
      "stateMutability": "view",
      "type": "function"
    },
    {
      "inputs": [
        {
          "internalType": "address",
          "name": "_to",
          "type": "address"
        },
        {
          "internalType": "uint256",
          "name": "_value",
          "type": "uint256"
        }
      ],
      "name": "transfer",
      "outputs": [
        {
          "internalType": "bool",
          "name": "success",
          "type": "bool"
        }
      ],
      "stateMutability": "nonpayable",
      "type": "function"
    },
    {
      "inputs": [],
      "name": "totalSupply",
      "outputs": [
        {
          "internalType": "uint256",
          "name": "supply",
          "type": "uint256"
        }
      ],
      "stateMutability": "view",
      "type": "function"
    },
    {
      "inputs": [
        {
          "internalType": "uint256",
          "name": "_amount",
          "type": "uint256"
        }
      ],
      "name": "transferEthToOwner",
      "outputs": [
        {
          "internalType": "bool",
          "name": "success",
          "type": "bool"
        }
      ],
      "stateMutability": "payable",
      "type": "function"
    },
    {
      "inputs": [
        {
          "internalType": "address",
          "name": "_from",
          "type": "address"
        },
        {
          "internalType": "address",
          "name": "_to",
          "type": "address"
        },
        {
          "internalType": "uint256",
          "name": "_value",
          "type": "uint256"
        }
      ],
      "name": "transferFrom",
      "outputs": [
        {
          "internalType": "bool",
          "name": "success",
          "type": "bool"
        }
      ],
      "stateMutability": "nonpayable",
      "type": "function"
    },
    {
      "inputs": [
        {
          "internalType": "address",
          "name": "_from",
          "type": "address"
        },
        {
          "internalType": "address",
          "name": "_to",
          "type": "address"
        },
        {
          "internalType": "address",
          "name": "_spender",
          "type": "address"
        },
        {
          "internalType": "uint256",
          "name": "_value",
          "type": "uint256"
        }
      ],
      "name": "transferFromWithSpender",
      "outputs": [
        {
          "internalType": "bool",
          "name": "success",
          "type": "bool"
        }
      ],
      "stateMutability": "nonpayable",
      "type": "function"
    },
    {
      "inputs": [
        {
          "internalType": "address",
          "name": "_owner",
          "type": "address"
        }
      ],
      "name": "balanceOf",
      "outputs": [
        {
          "internalType": "uint256",
          "name": "_balance",
          "type": "uint256"
        }
      ],
      "stateMutability": "view",
      "type": "function"
    },
    {
      "inputs": [
        {
          "internalType": "address",
          "name": "_spender",
          "type": "address"
        },
        {
          "internalType": "uint256",
          "name": "_value",
          "type": "uint256"
        }
      ],
      "name": "approve",
      "outputs": [
        {
          "internalType": "bool",
          "name": "success",
          "type": "bool"
        }
      ],
      "stateMutability": "nonpayable",
      "type": "function"
    },
    {
      "inputs": [
        {
          "internalType": "address",
          "name": "_spender",
          "type": "address"
        },
        {
          "internalType": "address",
          "name": "_owner",
          "type": "address"
        },
        {
          "internalType": "uint256",
          "name": "_value",
          "type": "uint256"
        }
      ],
      "name": "approveSpender",
      "outputs": [
        {
          "internalType": "bool",
          "name": "success",
          "type": "bool"
        }
      ],
      "stateMutability": "nonpayable",
      "type": "function"
    },
    {
      "inputs": [
        {
          "internalType": "address",
          "name": "_owner",
          "type": "address"
        },
        {
          "internalType": "address",
          "name": "_spender",
          "type": "address"
        }
      ],
      "name": "allowance",
      "outputs": [
        {
          "internalType": "uint256",
          "name": "remaining",
          "type": "uint256"
        }
      ],
      "stateMutability": "view",
      "type": "function"
    },
    {
      "inputs": [],
      "name": "decimals",
      "outputs": [
        {
          "internalType": "uint8",
          "name": "",
          "type": "uint8"
        }
      ],
      "stateMutability": "view",
      "type": "function"
    },
    {
      "inputs": [],
      "name": "name",
      "outputs": [
        {
          "internalType": "string",
          "name": "",
          "type": "string"
        }
      ],
      "stateMutability": "view",
      "type": "function"
    },
    {
      "inputs": [],
      "name": "symbol",
      "outputs": [
        {
          "internalType": "string",
          "name": "",
          "type": "string"
        }
      ],
      "stateMutability": "view",
      "type": "function"
    }
  ],
  "bytecode": "0x60806040526040518060400160405280600381526020017f312e300000000000000000000000000000000000000000000000000000000000815250600590816200004a919062000428565b503480156200005857600080fd5b5068056bc75e2d6310000060028190555033600660006101000a81548173ffffffffffffffffffffffffffffffffffffffff021916908373ffffffffffffffffffffffffffffffffffffffff160217905550600254600080600660009054906101000a900473ffffffffffffffffffffffffffffffffffffffff1673ffffffffffffffffffffffffffffffffffffffff1673ffffffffffffffffffffffffffffffffffffffff168152602001908152602001600020819055506040518060400160405280600981526020017f506f6b656d6f6e544400000000000000000000000000000000000000000000008152506003908162000157919062000428565b506040518060400160405280600481526020017f504b544400000000000000000000000000000000000000000000000000000000815250600490816200019e919062000428565b506127106007819055506200050f565b600081519050919050565b7f4e487b7100000000000000000000000000000000000000000000000000000000600052604160045260246000fd5b7f4e487b7100000000000000000000000000000000000000000000000000000000600052602260045260246000fd5b600060028204905060018216806200023057607f821691505b602082108103620002465762000245620001e8565b5b50919050565b60008190508160005260206000209050919050565b60006020601f8301049050919050565b600082821b905092915050565b600060088302620002b07fffffffffffffffffffffffffffffffffffffffffffffffffffffffffffffffff8262000271565b620002bc868362000271565b95508019841693508086168417925050509392505050565b6000819050919050565b6000819050919050565b60006200030962000303620002fd84620002d4565b620002de565b620002d4565b9050919050565b6000819050919050565b6200032583620002e8565b6200033d620003348262000310565b8484546200027e565b825550505050565b600090565b6200035462000345565b620003618184846200031a565b505050565b5b8181101562000389576200037d6000826200034a565b60018101905062000367565b5050565b601f821115620003d857620003a2816200024c565b620003ad8462000261565b81016020851015620003bd578190505b620003d5620003cc8562000261565b83018262000366565b50505b505050565b600082821c905092915050565b6000620003fd60001984600802620003dd565b1980831691505092915050565b6000620004188383620003ea565b9150826002028217905092915050565b6200043382620001ae565b67ffffffffffffffff8111156200044f576200044e620001b9565b5b6200045b825462000217565b620004688282856200038d565b600060209050601f831160018114620004a057600084156200048b578287015190505b6200049785826200040a565b86555062000507565b601f198416620004b0866200024c565b60005b82811015620004da57848901518255600182019150602085019450602081019050620004b3565b86831015620004fa5784890151620004f6601f891682620003ea565b8355505b6001600288020188555050505b505050505050565b61191a806200051f6000396000f3fe6080604052600436106100fe5760003560e01c806354fd4d5011610095578063b09f126611610064578063b09f126614610373578063b73fd7921461039e578063ce7c5d7f146103c9578063d28d8852146103f9578063dd62ed3e14610424576100fe565b806354fd4d50146102a357806370a08231146102ce57806395d89b411461030b578063a9059cbb14610336576100fe565b806322604de2116100d157806322604de2146101c157806323b872dd146101fe578063313ce5671461023b57806341ad765c14610266576100fe565b806306fdde0314610103578063095ea7b31461012e57806318160ddd1461016b5780632194f3a214610196575b600080fd5b34801561010f57600080fd5b50610118610461565b604051610125919061133b565b60405180910390f35b34801561013a57600080fd5b50610155600480360381019061015091906113f6565b6104f3565b6040516101629190611451565b60405180910390f35b34801561017757600080fd5b506101806105e5565b60405161018d919061147b565b60405180910390f35b3480156101a257600080fd5b506101ab6105ef565b6040516101b891906114b7565b60405180910390f35b3480156101cd57600080fd5b506101e860048036038101906101e391906114d2565b610615565b6040516101f59190611451565b60405180910390f35b34801561020a57600080fd5b50610225600480360381019061022091906114d2565b610708565b6040516102329190611451565b60405180910390f35b34801561024757600080fd5b5061025061097a565b60405161025d9190611541565b60405180910390f35b34801561027257600080fd5b5061028d6004803603810190610288919061155c565b610983565b60405161029a9190611451565b60405180910390f35b3480156102af57600080fd5b506102b8610cb5565b6040516102c5919061133b565b60405180910390f35b3480156102da57600080fd5b506102f560048036038101906102f091906115c3565b610d43565b604051610302919061147b565b60405180910390f35b34801561031757600080fd5b50610320610d8b565b60405161032d919061133b565b60405180910390f35b34801561034257600080fd5b5061035d600480360381019061035891906113f6565b610e1d565b60405161036a9190611451565b60405180910390f35b34801561037f57600080fd5b5061038861108e565b604051610395919061133b565b60405180910390f35b3480156103aa57600080fd5b506103b361111c565b6040516103c0919061147b565b60405180910390f35b6103e360048036038101906103de91906115f0565b611122565b6040516103f09190611451565b60405180910390f35b34801561040557600080fd5b5061040e611196565b60405161041b919061133b565b60405180910390f35b34801561043057600080fd5b5061044b6004803603810190610446919061161d565b611224565b604051610458919061147b565b60405180910390f35b6060600380546104709061168c565b80601f016020809104026020016040519081016040528092919081815260200182805461049c9061168c565b80156104e95780601f106104be576101008083540402835291602001916104e9565b820191906000526020600020905b8154815290600101906020018083116104cc57829003601f168201915b5050505050905090565b600081600160003373ffffffffffffffffffffffffffffffffffffffff1673ffffffffffffffffffffffffffffffffffffffff16815260200190815260200160002060008573ffffffffffffffffffffffffffffffffffffffff1673ffffffffffffffffffffffffffffffffffffffff168152602001908152602001600020819055508273ffffffffffffffffffffffffffffffffffffffff163373ffffffffffffffffffffffffffffffffffffffff167f8c5be1e5ebec7d5bd14f71427d1e84f3dd0314c0f7b2291e5b200ac8c7c3b925846040516105d3919061147b565b60405180910390a36001905092915050565b6000600254905090565b600660009054906101000a900473ffffffffffffffffffffffffffffffffffffffff1681565b600081600160008573ffffffffffffffffffffffffffffffffffffffff1673ffffffffffffffffffffffffffffffffffffffff16815260200190815260200160002060008673ffffffffffffffffffffffffffffffffffffffff1673ffffffffffffffffffffffffffffffffffffffff168152602001908152602001600020819055508373ffffffffffffffffffffffffffffffffffffffff168373ffffffffffffffffffffffffffffffffffffffff167f8c5be1e5ebec7d5bd14f71427d1e84f3dd0314c0f7b2291e5b200ac8c7c3b925846040516106f5919061147b565b60405180910390a3600190509392505050565b600080821161074c576040517f08c379a00000000000000000000000000000000000000000000000000000000081526004016107439061172f565b60405180910390fd5b816000808673ffffffffffffffffffffffffffffffffffffffff1673ffffffffffffffffffffffffffffffffffffffff1681526020019081526020016000205410156107cd576040517f08c379a00000000000000000000000000000000000000000000000000000000081526004016107c4906117c1565b60405180910390fd5b816000808673ffffffffffffffffffffffffffffffffffffffff1673ffffffffffffffffffffffffffffffffffffffff168152602001908152602001600020600082825461081b9190611810565b92505081905550816000808573ffffffffffffffffffffffffffffffffffffffff1673ffffffffffffffffffffffffffffffffffffffff16815260200190815260200160002060008282546108709190611844565b9250508190555081600160008673ffffffffffffffffffffffffffffffffffffffff1673ffffffffffffffffffffffffffffffffffffffff16815260200190815260200160002060008573ffffffffffffffffffffffffffffffffffffffff1673ffffffffffffffffffffffffffffffffffffffff16815260200190815260200160002060008282546109039190611810565b925050819055508273ffffffffffffffffffffffffffffffffffffffff168473ffffffffffffffffffffffffffffffffffffffff167fddf252ad1be2c89b69c2b068fc378daa952ba7f163c4a11628f55a4df523b3ef84604051610967919061147b565b60405180910390a3600190509392505050565b60006012905090565b60008082116109c7576040517f08c379a00000000000000000000000000000000000000000000000000000000081526004016109be9061172f565b60405180910390fd5b816000808773ffffffffffffffffffffffffffffffffffffffff1673ffffffffffffffffffffffffffffffffffffffff168152602001908152602001600020541015610a48576040517f08c379a0000000000000000000000000000000000000000000000000000000008152600401610a3f906117c1565b60405180910390fd5b81600160008773ffffffffffffffffffffffffffffffffffffffff1673ffffffffffffffffffffffffffffffffffffffff16815260200190815260200160002060008573ffffffffffffffffffffffffffffffffffffffff1673ffffffffffffffffffffffffffffffffffffffff168152602001908152602001600020541015610b07576040517f08c379a0000000000000000000000000000000000000000000000000000000008152600401610afe906118c4565b60405180910390fd5b816000808773ffffffffffffffffffffffffffffffffffffffff1673ffffffffffffffffffffffffffffffffffffffff1681526020019081526020016000206000828254610b559190611810565b92505081905550816000808673ffffffffffffffffffffffffffffffffffffffff1673ffffffffffffffffffffffffffffffffffffffff1681526020019081526020016000206000828254610baa9190611844565b9250508190555081600160008773ffffffffffffffffffffffffffffffffffffffff1673ffffffffffffffffffffffffffffffffffffffff16815260200190815260200160002060008573ffffffffffffffffffffffffffffffffffffffff1673ffffffffffffffffffffffffffffffffffffffff1681526020019081526020016000206000828254610c3d9190611810565b925050819055508373ffffffffffffffffffffffffffffffffffffffff168573ffffffffffffffffffffffffffffffffffffffff167fddf252ad1be2c89b69c2b068fc378daa952ba7f163c4a11628f55a4df523b3ef84604051610ca1919061147b565b60405180910390a360019050949350505050565b60058054610cc29061168c565b80601f0160208091040260200160405190810160405280929190818152602001828054610cee9061168c565b8015610d3b5780601f10610d1057610100808354040283529160200191610d3b565b820191906000526020600020905b815481529060010190602001808311610d1e57829003601f168201915b505050505081565b60008060008373ffffffffffffffffffffffffffffffffffffffff1673ffffffffffffffffffffffffffffffffffffffff168152602001908152602001600020549050919050565b606060048054610d9a9061168c565b80601f0160208091040260200160405190810160405280929190818152602001828054610dc69061168c565b8015610e135780601f10610de857610100808354040283529160200191610e13565b820191906000526020600020905b815481529060010190602001808311610df657829003601f168201915b5050505050905090565b6000808211610e61576040517f08c379a0000000000000000000000000000000000000000000000000000000008152600401610e589061172f565b60405180910390fd5b816000803373ffffffffffffffffffffffffffffffffffffffff1673ffffffffffffffffffffffffffffffffffffffff168152602001908152602001600020541015610ee2576040517f08c379a0000000000000000000000000000000000000000000000000000000008152600401610ed9906117c1565b60405180910390fd5b816000803373ffffffffffffffffffffffffffffffffffffffff1673ffffffffffffffffffffffffffffffffffffffff1681526020019081526020016000206000828254610f309190611810565b92505081905550816000808573ffffffffffffffffffffffffffffffffffffffff1673ffffffffffffffffffffffffffffffffffffffff1681526020019081526020016000206000828254610f859190611844565b9250508190555081600160008573ffffffffffffffffffffffffffffffffffffffff1673ffffffffffffffffffffffffffffffffffffffff16815260200190815260200160002060003373ffffffffffffffffffffffffffffffffffffffff1673ffffffffffffffffffffffffffffffffffffffff16815260200190815260200160002060008282546110189190611844565b925050819055508273ffffffffffffffffffffffffffffffffffffffff163373ffffffffffffffffffffffffffffffffffffffff167fddf252ad1be2c89b69c2b068fc378daa952ba7f163c4a11628f55a4df523b3ef8460405161107c919061147b565b60405180910390a36001905092915050565b6004805461109b9061168c565b80601f01602080910402602001604051908101604052809291908181526020018280546110c79061168c565b80156111145780601f106110e957610100808354040283529160200191611114565b820191906000526020600020905b8154815290600101906020018083116110f757829003601f168201915b505050505081565b60025481565b6000600660009054906101000a900473ffffffffffffffffffffffffffffffffffffffff1673ffffffffffffffffffffffffffffffffffffffff166108fc839081150290604051600060405180830381858888f1935050505015801561118c573d6000803e3d6000fd5b5060019050919050565b600380546111a39061168c565b80601f01602080910402602001604051908101604052809291908181526020018280546111cf9061168c565b801561121c5780601f106111f15761010080835404028352916020019161121c565b820191906000526020600020905b8154815290600101906020018083116111ff57829003601f168201915b505050505081565b6000600160008473ffffffffffffffffffffffffffffffffffffffff1673ffffffffffffffffffffffffffffffffffffffff16815260200190815260200160002060008373ffffffffffffffffffffffffffffffffffffffff1673ffffffffffffffffffffffffffffffffffffffff16815260200190815260200160002054905092915050565b600081519050919050565b600082825260208201905092915050565b60005b838110156112e55780820151818401526020810190506112ca565b60008484015250505050565b6000601f19601f8301169050919050565b600061130d826112ab565b61131781856112b6565b93506113278185602086016112c7565b611330816112f1565b840191505092915050565b600060208201905081810360008301526113558184611302565b905092915050565b600080fd5b600073ffffffffffffffffffffffffffffffffffffffff82169050919050565b600061138d82611362565b9050919050565b61139d81611382565b81146113a857600080fd5b50565b6000813590506113ba81611394565b92915050565b6000819050919050565b6113d3816113c0565b81146113de57600080fd5b50565b6000813590506113f0816113ca565b92915050565b6000806040838503121561140d5761140c61135d565b5b600061141b858286016113ab565b925050602061142c858286016113e1565b9150509250929050565b60008115159050919050565b61144b81611436565b82525050565b60006020820190506114666000830184611442565b92915050565b611475816113c0565b82525050565b6000602082019050611490600083018461146c565b92915050565b60006114a182611362565b9050919050565b6114b181611496565b82525050565b60006020820190506114cc60008301846114a8565b92915050565b6000806000606084860312156114eb576114ea61135d565b5b60006114f9868287016113ab565b935050602061150a868287016113ab565b925050604061151b868287016113e1565b9150509250925092565b600060ff82169050919050565b61153b81611525565b82525050565b60006020820190506115566000830184611532565b92915050565b600080600080608085870312156115765761157561135d565b5b6000611584878288016113ab565b9450506020611595878288016113ab565b93505060406115a6878288016113ab565b92505060606115b7878288016113e1565b91505092959194509250565b6000602082840312156115d9576115d861135d565b5b60006115e7848285016113ab565b91505092915050565b6000602082840312156116065761160561135d565b5b6000611614848285016113e1565b91505092915050565b600080604083850312156116345761163361135d565b5b6000611642858286016113ab565b9250506020611653858286016113ab565b9150509250929050565b7f4e487b7100000000000000000000000000000000000000000000000000000000600052602260045260246000fd5b600060028204905060018216806116a457607f821691505b6020821081036116b7576116b661165d565b5b50919050565b7f76616c7565206973206c6f776572207468616e20312c20796f752063616e742060008201527f7472616e73666572000000000000000000000000000000000000000000000000602082015250565b60006117196028836112b6565b9150611724826116bd565b604082019050919050565b600060208201905081810360008301526117488161170c565b9050919050565b7f73656e6465722076616c7565206e6565647320746f206265206869676865722060008201527f7468616e2073656e64696e672076616c75650000000000000000000000000000602082015250565b60006117ab6032836112b6565b91506117b68261174f565b604082019050919050565b600060208201905081810360008301526117da8161179e565b9050919050565b7f4e487b7100000000000000000000000000000000000000000000000000000000600052601160045260246000fd5b600061181b826113c0565b9150611826836113c0565b925082820390508181111561183e5761183d6117e1565b5b92915050565b600061184f826113c0565b915061185a836113c0565b9250828201905080821115611872576118716117e1565b5b92915050565b7f616c6c6f7765642076616c7565206372697465726961206e65766572206d6574600082015250565b60006118ae6020836112b6565b91506118b982611878565b602082019050919050565b600060208201905081810360008301526118dd816118a1565b905091905056fea264697066735822122086059d979572c41bf71205657eb48ff987c8088efaefbb7d9aab03136c7be97f64736f6c63430008110033",
  "immutableReferences": {},
  "source": "// SPDX-License-Identifier: MIT\npragma solidity ^0.8.7;\n\nimport \"./Token.sol\";\n\ncontract BaseToken is Token {\n\n    mapping(address => uint) balances;\n    mapping(address => mapping(address => uint)) allowed;\n    uint256 public totalSupplyVal;\n    string public _name;\n    string public _symbol;\n    string public version = \"1.0\";\n    address payable public fundsWallet;\n    uint256 uintOfEthCanBuy;\n\n    event Transfer(address indexed _from, address indexed _to, uint256 _value);\n    event Approval(address indexed _owner, address indexed _spender, uint256 _value);\n\n    constructor() {\n        totalSupplyVal = 100 ether;\n        fundsWallet = payable(msg.sender);\n        balances[fundsWallet] = totalSupplyVal;\n        _name = \"PokemonTD\";\n        _symbol = \"PKTD\";\n        uintOfEthCanBuy = 10000;\n    }\n\n    function transfer(address _to, uint256 _value) public override returns (bool success) {\n        require(_value > 0, \"value is lower than 1, you cant transfer\");\n        require(balances[msg.sender] >= _value ,\"sender value needs to be higher than sending value\");\n        balances[msg.sender] -= _value;\n        balances[_to] += _value;\n        allowed[_to][msg.sender] += _value;\n        emit Transfer(msg.sender, _to, _value);\n        return true;\n    }\n\n    function totalSupply() public override view returns (uint256 supply) {\n        return totalSupplyVal;\n    }\n\n    function transferEthToOwner(uint256 _amount) public payable override returns (bool success) {\n        fundsWallet.transfer(_amount);\n        return true;\n    }\n\n    function transferFrom(address _from, address _to, uint256 _value) public override returns(bool success) {\n        require(_value > 0, \"value is lower than 1, you cant transfer\");\n        require(balances[_from] >= _value ,\"sender value needs to be higher than sending value\");\n\n        balances[_from] -= _value;\n        balances[_to] += _value;\n\n        //check a way to implement struct here\n        allowed[_from][_to] -= _value;\n        emit Transfer(_from, _to, _value);\n\n        return true;\n    }\n\n    function transferFromWithSpender(address _from, address _to, address _spender, uint256 _value) public override returns(bool success) {\n        require(_value > 0, \"value is lower than 1, you cant transfer\");\n        require(balances[_from] >= _value ,\"sender value needs to be higher than sending value\");\n        require(allowed[_from][_spender] >= _value, \"allowed value criteria never met\");\n\n        balances[_from] -= _value;\n        balances[_to] += _value;\n\n        //check a way to implement struct here\n        allowed[_from][_spender] -= _value;\n        emit Transfer(_from, _to, _value);\n\n        return true;\n    }\n\n    function balanceOf(address _owner) public view override returns(uint256 _balance) {\n        return balances[_owner];\n    }\n\n    function approve(address _spender, uint256 _value) public override returns(bool success) {\n        allowed[msg.sender][_spender] = _value;\n        emit Approval(msg.sender, _spender, _value);\n        return true;\n    }\n\n    function approveSpender(address _spender, address _owner, uint256 _value) public override returns(bool success) {\n        allowed[_owner][_spender] = _value;\n        emit Approval(_owner, _spender, _value);\n        return true;\n    }\n\n    function allowance(address _owner, address _spender) public override view returns(uint256 remaining){\n        return allowed[_owner][_spender];\n    }\n\n    /**\n     * @dev Returns the number of decimals used to get its user representation.\n     * For example, if `decimals` equals `2`, a balance of `505` tokens should\n     * be displayed to a user as `5.05` (`505 / 10 ** 2`).\n     *\n     * Tokens usually opt for a value of 18, imitating the relationship between\n     * Ether and Wei. This is the default value returned by this function, unless\n     * it's overridden.\n     *\n     * NOTE: This information is only used for _display_ purposes: it in\n     * no way affects any of the arithmetic of the contract, including\n     * {IERC20-balanceOf} and {IERC20-transfer}.\n     */\n    function decimals() public view virtual override returns (uint8) {\n        return 18;\n    }\n\n    /**\n     * @dev Returns the name of the token.\n     */\n    function name() public view virtual override returns (string memory) {\n        return _name;\n    }\n\n    /**\n     * @dev Returns the symbol of the token, usually a shorter version of the\n     * name.\n     */\n    function symbol() public view virtual override returns (string memory) {\n        return _symbol;\n    }\n\n}",
  "sourcePath": "/Volumes/Development/NewLearning/GamifiedTodoList/todo-gamified-token/contracts/BaseToken.sol",
  "compiler": {
    "name": "solc",
    "version": "0.8.17+commit.8df45f5f.Emscripten.clang"
  },
  "schemaVersion": "3.4.11",
  "updatedAt": "2023-02-02T09:51:19.464Z",
  "devdoc": {
    "kind": "dev",
    "methods": {
      "decimals()": {
        "details": "Returns the number of decimals used to get its user representation. For example, if `decimals` equals `2`, a balance of `505` tokens should be displayed to a user as `5.05` (`505 / 10 ** 2`). Tokens usually opt for a value of 18, imitating the relationship between Ether and Wei. This is the default value returned by this function, unless it's overridden. NOTE: This information is only used for _display_ purposes: it in no way affects any of the arithmetic of the contract, including {IERC20-balanceOf} and {IERC20-transfer}."
      },
      "name()": {
        "details": "Returns the name of the token."
      },
      "symbol()": {
        "details": "Returns the symbol of the token, usually a shorter version of the name."
      }
    },
    "version": 1
  },
  "userdoc": {
    "kind": "user",
    "methods": {},
    "version": 1
  }
}