{
  "contractName": "PokemonTDToken",
  "abi": [
    {
      "inputs": [],
      "stateMutability": "nonpayable",
      "type": "constructor"
    },
    {
      "anonymous": false,
      "inputs": [
        {
          "indexed": false,
          "internalType": "uint256",
          "name": "amount",
          "type": "uint256"
        }
      ],
      "name": "Bought",
      "type": "event"
    },
    {
      "anonymous": false,
      "inputs": [
        {
          "indexed": false,
          "internalType": "uint256",
          "name": "amount",
          "type": "uint256"
        }
      ],
      "name": "Sold",
      "type": "event"
    },
    {
      "inputs": [],
      "name": "token",
      "outputs": [
        {
          "internalType": "contract Token",
          "name": "",
          "type": "address"
        }
      ],
      "stateMutability": "view",
      "type": "function",
      "constant": true
    },
    {
      "inputs": [],
      "name": "buy",
      "outputs": [],
      "stateMutability": "payable",
      "type": "function",
      "payable": true
    },
    {
      "inputs": [
        {
          "internalType": "uint256",
          "name": "_amount",
          "type": "uint256"
        }
      ],
      "name": "sell",
      "outputs": [],
      "stateMutability": "payable",
      "type": "function",
      "payable": true
    },
    {
      "inputs": [
        {
          "internalType": "address",
          "name": "_to",
          "type": "address"
        },
        {
          "internalType": "address",
          "name": "_from",
          "type": "address"
        },
        {
          "internalType": "uint256",
          "name": "_amount",
          "type": "uint256"
        }
      ],
      "name": "transferSingleTokenToWinner",
      "outputs": [
        {
          "internalType": "uint256",
          "name": "balance",
          "type": "uint256"
        }
      ],
      "stateMutability": "nonpayable",
      "type": "function"
    },
    {
      "inputs": [
        {
          "internalType": "address",
          "name": "_to",
          "type": "address"
        },
        {
          "internalType": "address",
          "name": "_from",
          "type": "address"
        },
        {
          "internalType": "address",
          "name": "_spender",
          "type": "address"
        },
        {
          "internalType": "uint256",
          "name": "_amount",
          "type": "uint256"
        }
      ],
      "name": "transferSingleTokenToWinnerWithSpender",
      "outputs": [
        {
          "internalType": "uint256",
          "name": "balance",
          "type": "uint256"
        }
      ],
      "stateMutability": "nonpayable",
      "type": "function"
    },
    {
      "inputs": [
        {
          "internalType": "address",
          "name": "_spender",
          "type": "address"
        },
        {
          "internalType": "uint256",
          "name": "_value",
          "type": "uint256"
        }
      ],
      "name": "approveSpenderSection",
      "outputs": [
        {
          "internalType": "uint256",
          "name": "balance",
          "type": "uint256"
        }
      ],
      "stateMutability": "nonpayable",
      "type": "function"
    },
    {
      "inputs": [
        {
          "internalType": "address",
          "name": "_owner",
          "type": "address"
        },
        {
          "internalType": "address",
          "name": "_spender",
          "type": "address"
        },
        {
          "internalType": "uint256",
          "name": "_value",
          "type": "uint256"
        }
      ],
      "name": "approveSpenderFromOwner",
      "outputs": [
        {
          "internalType": "uint256",
          "name": "balance",
          "type": "uint256"
        }
      ],
      "stateMutability": "nonpayable",
      "type": "function"
    },
    {
      "inputs": [
        {
          "internalType": "address",
          "name": "_owner",
          "type": "address"
        },
        {
          "internalType": "address",
          "name": "_spender",
          "type": "address"
        }
      ],
      "name": "getAllowance",
      "outputs": [
        {
          "internalType": "uint256",
          "name": "balance",
          "type": "uint256"
        }
      ],
      "stateMutability": "nonpayable",
      "type": "function"
    },
    {
      "inputs": [],
      "name": "getAmountCheck",
      "outputs": [
        {
          "internalType": "uint256",
          "name": "amount",
          "type": "uint256"
        }
      ],
      "stateMutability": "payable",
      "type": "function",
      "payable": true
    },
    {
      "inputs": [],
      "name": "currentBalance",
      "outputs": [
        {
          "internalType": "uint256",
          "name": "balance",
          "type": "uint256"
        }
      ],
      "stateMutability": "nonpayable",
      "type": "function"
    },
    {
      "inputs": [
        {
          "internalType": "address",
          "name": "_useraddress",
          "type": "address"
        }
      ],
      "name": "currentBalanceUser",
      "outputs": [
        {
          "internalType": "uint256",
          "name": "balance",
          "type": "uint256"
        }
      ],
      "stateMutability": "nonpayable",
      "type": "function"
    }
  ],
  "bytecode": "0x608060405234801561001057600080fd5b5060405161001d90610109565b604051809103906000f080158015610039573d6000803e3d6000fd5b506000806101000a81548173ffffffffffffffffffffffffffffffffffffffff021916908373ffffffffffffffffffffffffffffffffffffffff1602179055506103e860018190555033600260006101000a81548173ffffffffffffffffffffffffffffffffffffffff021916908373ffffffffffffffffffffffffffffffffffffffff16021790555033600360006101000a81548173ffffffffffffffffffffffffffffffffffffffff021916908373ffffffffffffffffffffffffffffffffffffffff160217905550610116565b611cb380611ace83390190565b6119a9806101256000396000f3fe60806040526004361061009c5760003560e01c80636d95c0dc116100645780636d95c0dc146101b35780638d072678146101f0578063a6f2ae3a1461022d578063ce845d1d14610237578063e4849b3214610262578063fc0c546a1461027e5761009c565b8063011cda54146100a157806303cf0e34146100de5780630af4187d1461011b578063331fbd25146101585780634649a3c114610176575b600080fd5b3480156100ad57600080fd5b506100c860048036038101906100c3919061132f565b6102a9565b6040516100d59190611391565b60405180910390f35b3480156100ea57600080fd5b50610105600480360381019061010091906113ac565b6103f4565b6040516101129190611391565b60405180910390f35b34801561012757600080fd5b50610142600480360381019061013d91906113ec565b61053c565b60405161014f9190611391565b60405180910390f35b6101606105e5565b60405161016d9190611391565b60405180910390f35b34801561018257600080fd5b5061019d6004803603810190610198919061132f565b61068d565b6040516101aa9190611391565b60405180910390f35b3480156101bf57600080fd5b506101da60048036038101906101d5919061142c565b61096c565b6040516101e79190611391565b60405180910390f35b3480156101fc57600080fd5b5061021760048036038101906102129190611493565b610c4e565b6040516102249190611391565b60405180910390f35b610235610cf4565b005b34801561024357600080fd5b5061024c610f69565b6040516102599190611391565b60405180910390f35b61027c600480360381019061027791906114c0565b61100d565b005b34801561028a57600080fd5b50610293611272565b6040516102a0919061154c565b60405180910390f35b60008060009054906101000a900473ffffffffffffffffffffffffffffffffffffffff1673ffffffffffffffffffffffffffffffffffffffff166322604de28486856040518463ffffffff1660e01b815260040161030993929190611576565b6020604051808303816000875af1158015610328573d6000803e3d6000fd5b505050506040513d601f19601f8201168201806040525081019061034c91906115e5565b5060008054906101000a900473ffffffffffffffffffffffffffffffffffffffff1673ffffffffffffffffffffffffffffffffffffffff1663dd62ed3e85856040518363ffffffff1660e01b81526004016103a8929190611612565b6020604051808303816000875af11580156103c7573d6000803e3d6000fd5b505050506040513d601f19601f820116820180604052508101906103eb9190611650565b90509392505050565b60008060009054906101000a900473ffffffffffffffffffffffffffffffffffffffff1673ffffffffffffffffffffffffffffffffffffffff1663095ea7b384846040518363ffffffff1660e01b815260040161045292919061167d565b6020604051808303816000875af1158015610471573d6000803e3d6000fd5b505050506040513d601f19601f8201168201806040525081019061049591906115e5565b5060008054906101000a900473ffffffffffffffffffffffffffffffffffffffff1673ffffffffffffffffffffffffffffffffffffffff1663dd62ed3e33856040518363ffffffff1660e01b81526004016104f1929190611612565b6020604051808303816000875af1158015610510573d6000803e3d6000fd5b505050506040513d601f19601f820116820180604052508101906105349190611650565b905092915050565b60008060009054906101000a900473ffffffffffffffffffffffffffffffffffffffff1673ffffffffffffffffffffffffffffffffffffffff1663dd62ed3e84846040518363ffffffff1660e01b815260040161059a929190611612565b6020604051808303816000875af11580156105b9573d6000803e3d6000fd5b505050506040513d601f19601f820116820180604052508101906105dd9190611650565b905092915050565b60008060008054906101000a900473ffffffffffffffffffffffffffffffffffffffff1673ffffffffffffffffffffffffffffffffffffffff166370a08231306040518263ffffffff1660e01b815260040161064191906116a6565b6020604051808303816000875af1158015610660573d6000803e3d6000fd5b505050506040513d601f19601f820116820180604052508101906106849190611650565b90508091505090565b60008082116106d1576040517f08c379a00000000000000000000000000000000000000000000000000000000081526004016106c890611744565b60405180910390fd5b60008060009054906101000a900473ffffffffffffffffffffffffffffffffffffffff1673ffffffffffffffffffffffffffffffffffffffff166370a08231856040518263ffffffff1660e01b815260040161072d91906116a6565b6020604051808303816000875af115801561074c573d6000803e3d6000fd5b505050506040513d601f19601f820116820180604052508101906107709190611650565b905082811061081f5760008054906101000a900473ffffffffffffffffffffffffffffffffffffffff1673ffffffffffffffffffffffffffffffffffffffff166323b872dd8587866040518463ffffffff1660e01b81526004016107d693929190611576565b6020604051808303816000875af11580156107f5573d6000803e3d6000fd5b505050506040513d601f19601f8201168201806040525081019061081991906115e5565b506108bf565b60008054906101000a900473ffffffffffffffffffffffffffffffffffffffff1673ffffffffffffffffffffffffffffffffffffffff1663a9059cbb86856040518363ffffffff1660e01b815260040161087a92919061167d565b6020604051808303816000875af1158015610899573d6000803e3d6000fd5b505050506040513d601f19601f820116820180604052508101906108bd91906115e5565b505b60008060009054906101000a900473ffffffffffffffffffffffffffffffffffffffff1673ffffffffffffffffffffffffffffffffffffffff166370a08231866040518263ffffffff1660e01b815260040161091b91906116a6565b6020604051808303816000875af115801561093a573d6000803e3d6000fd5b505050506040513d601f19601f8201168201806040525081019061095e9190611650565b905080925050509392505050565b60008082116109b0576040517f08c379a00000000000000000000000000000000000000000000000000000000081526004016109a790611744565b60405180910390fd5b60008060009054906101000a900473ffffffffffffffffffffffffffffffffffffffff1673ffffffffffffffffffffffffffffffffffffffff166370a08231866040518263ffffffff1660e01b8152600401610a0c91906116a6565b6020604051808303816000875af1158015610a2b573d6000803e3d6000fd5b505050506040513d601f19601f82011682018060405250810190610a4f9190611650565b9050828110610b005760008054906101000a900473ffffffffffffffffffffffffffffffffffffffff1673ffffffffffffffffffffffffffffffffffffffff166341ad765c868887876040518563ffffffff1660e01b8152600401610ab79493929190611764565b6020604051808303816000875af1158015610ad6573d6000803e3d6000fd5b505050506040513d601f19601f82011682018060405250810190610afa91906115e5565b50610ba0565b60008054906101000a900473ffffffffffffffffffffffffffffffffffffffff1673ffffffffffffffffffffffffffffffffffffffff1663a9059cbb87856040518363ffffffff1660e01b8152600401610b5b92919061167d565b6020604051808303816000875af1158015610b7a573d6000803e3d6000fd5b505050506040513d601f19601f82011682018060405250810190610b9e91906115e5565b505b60008060009054906101000a900473ffffffffffffffffffffffffffffffffffffffff1673ffffffffffffffffffffffffffffffffffffffff166370a08231876040518263ffffffff1660e01b8152600401610bfc91906116a6565b6020604051808303816000875af1158015610c1b573d6000803e3d6000fd5b505050506040513d601f19601f82011682018060405250810190610c3f9190611650565b90508092505050949350505050565b60008060009054906101000a900473ffffffffffffffffffffffffffffffffffffffff1673ffffffffffffffffffffffffffffffffffffffff166370a08231836040518263ffffffff1660e01b8152600401610caa91906116a6565b6020604051808303816000875af1158015610cc9573d6000803e3d6000fd5b505050506040513d601f19601f82011682018060405250810190610ced9190611650565b9050919050565b600034905060008060009054906101000a900473ffffffffffffffffffffffffffffffffffffffff1673ffffffffffffffffffffffffffffffffffffffff166370a08231306040518263ffffffff1660e01b8152600401610d5591906116a6565b6020604051808303816000875af1158015610d74573d6000803e3d6000fd5b505050506040513d601f19601f82011682018060405250810190610d989190611650565b9050600034905060008311610de2576040517f08c379a0000000000000000000000000000000000000000000000000000000008152600401610dd99061181b565b60405180910390fd5b81811115610e25576040517f08c379a0000000000000000000000000000000000000000000000000000000008152600401610e1c90611887565b60405180910390fd5b60008054906101000a900473ffffffffffffffffffffffffffffffffffffffff1673ffffffffffffffffffffffffffffffffffffffff1663a9059cbb33836040518363ffffffff1660e01b8152600401610e8092919061167d565b6020604051808303816000875af1158015610e9f573d6000803e3d6000fd5b505050506040513d601f19601f82011682018060405250810190610ec391906115e5565b50600260009054906101000a900473ffffffffffffffffffffffffffffffffffffffff1673ffffffffffffffffffffffffffffffffffffffff166108fc849081150290604051600060405180830381858888f19350505050158015610f2c573d6000803e3d6000fd5b507f4e08ba899977cf7d4c2964bce71c6b9a7ef76ee5166a4c1249a1e08016e33ef181604051610f5c9190611391565b60405180910390a1505050565b60008060009054906101000a900473ffffffffffffffffffffffffffffffffffffffff1673ffffffffffffffffffffffffffffffffffffffff166370a08231336040518263ffffffff1660e01b8152600401610fc591906116a6565b6020604051808303816000875af1158015610fe4573d6000803e3d6000fd5b505050506040513d601f19601f820116820180604052508101906110089190611650565b905090565b60008111611050576040517f08c379a000000000000000000000000000000000000000000000000000000000815260040161104790611744565b60405180910390fd5b60008060009054906101000a900473ffffffffffffffffffffffffffffffffffffffff1673ffffffffffffffffffffffffffffffffffffffff1663dd62ed3e33306040518363ffffffff1660e01b81526004016110ae929190611612565b6020604051808303816000875af11580156110cd573d6000803e3d6000fd5b505050506040513d601f19601f820116820180604052508101906110f19190611650565b9050818111611135576040517f08c379a000000000000000000000000000000000000000000000000000000000815260040161112c906118f3565b60405180910390fd5b60008054906101000a900473ffffffffffffffffffffffffffffffffffffffff1673ffffffffffffffffffffffffffffffffffffffff166323b872dd3330856040518463ffffffff1660e01b815260040161119293929190611576565b6020604051808303816000875af11580156111b1573d6000803e3d6000fd5b505050506040513d601f19601f820116820180604052508101906111d591906115e5565b503373ffffffffffffffffffffffffffffffffffffffff166108fc600154846111fe9190611942565b9081150290604051600060405180830381858888f19350505050158015611229573d6000803e3d6000fd5b507f92f64ca637d023f354075a4be751b169c1a8a9ccb6d33cdd0cb3520543995727600154836112599190611942565b6040516112669190611391565b60405180910390a15050565b60008054906101000a900473ffffffffffffffffffffffffffffffffffffffff1681565b600080fd5b600073ffffffffffffffffffffffffffffffffffffffff82169050919050565b60006112c68261129b565b9050919050565b6112d6816112bb565b81146112e157600080fd5b50565b6000813590506112f3816112cd565b92915050565b6000819050919050565b61130c816112f9565b811461131757600080fd5b50565b60008135905061132981611303565b92915050565b60008060006060848603121561134857611347611296565b5b6000611356868287016112e4565b9350506020611367868287016112e4565b92505060406113788682870161131a565b9150509250925092565b61138b816112f9565b82525050565b60006020820190506113a66000830184611382565b92915050565b600080604083850312156113c3576113c2611296565b5b60006113d1858286016112e4565b92505060206113e28582860161131a565b9150509250929050565b6000806040838503121561140357611402611296565b5b6000611411858286016112e4565b9250506020611422858286016112e4565b9150509250929050565b6000806000806080858703121561144657611445611296565b5b6000611454878288016112e4565b9450506020611465878288016112e4565b9350506040611476878288016112e4565b92505060606114878782880161131a565b91505092959194509250565b6000602082840312156114a9576114a8611296565b5b60006114b7848285016112e4565b91505092915050565b6000602082840312156114d6576114d5611296565b5b60006114e48482850161131a565b91505092915050565b6000819050919050565b600061151261150d6115088461129b565b6114ed565b61129b565b9050919050565b6000611524826114f7565b9050919050565b600061153682611519565b9050919050565b6115468161152b565b82525050565b6000602082019050611561600083018461153d565b92915050565b611570816112bb565b82525050565b600060608201905061158b6000830186611567565b6115986020830185611567565b6115a56040830184611382565b949350505050565b60008115159050919050565b6115c2816115ad565b81146115cd57600080fd5b50565b6000815190506115df816115b9565b92915050565b6000602082840312156115fb576115fa611296565b5b6000611609848285016115d0565b91505092915050565b60006040820190506116276000830185611567565b6116346020830184611567565b9392505050565b60008151905061164a81611303565b92915050565b60006020828403121561166657611665611296565b5b60006116748482850161163b565b91505092915050565b60006040820190506116926000830185611567565b61169f6020830184611382565b9392505050565b60006020820190506116bb6000830184611567565b92915050565b600082825260208201905092915050565b7f596f75206e65656420746f206d656e74696f6e20506f6b656d6f6e544420616d60008201527f6f756e7400000000000000000000000000000000000000000000000000000000602082015250565b600061172e6024836116c1565b9150611739826116d2565b604082019050919050565b6000602082019050818103600083015261175d81611721565b9050919050565b60006080820190506117796000830187611567565b6117866020830186611567565b6117936040830185611567565b6117a06060830184611382565b95945050505050565b7f596f75206e65656420746f206d656e74696f6e204574686572206f722057656960008201527f20746f2062757900000000000000000000000000000000000000000000000000602082015250565b60006118056027836116c1565b9150611810826117a9565b604082019050919050565b60006020820190508181036000830152611834816117f8565b9050919050565b7f4e6f7420456e6f75676820506f6b656d6f6e5444204c65667400000000000000600082015250565b60006118716019836116c1565b915061187c8261183b565b602082019050919050565b600060208201905081810360008301526118a081611864565b9050919050565b7f506c6561736520636865636b2074686520746f6b656e20616c6c6f77616e6365600082015250565b60006118dd6020836116c1565b91506118e8826118a7565b602082019050919050565b6000602082019050818103600083015261190c816118d0565b9050919050565b7f4e487b7100000000000000000000000000000000000000000000000000000000600052601260045260246000fd5b600061194d826112f9565b9150611958836112f9565b92508261196857611967611913565b5b82820490509291505056fea2646970667358221220a9bf80cf2a3fc209904ae5988f916cc0f5f680a1fc68027d99fb3f7e9f9b6ac664736f6c6343000811003360806040526040518060400160405280600381526020017f312e300000000000000000000000000000000000000000000000000000000000815250600690816200004a919062000428565b503480156200005857600080fd5b5068056bc75e2d6310000060028190555033600760006101000a81548173ffffffffffffffffffffffffffffffffffffffff021916908373ffffffffffffffffffffffffffffffffffffffff160217905550600254600080600760009054906101000a900473ffffffffffffffffffffffffffffffffffffffff1673ffffffffffffffffffffffffffffffffffffffff1673ffffffffffffffffffffffffffffffffffffffff168152602001908152602001600020819055506040518060400160405280600981526020017f506f6b656d6f6e544400000000000000000000000000000000000000000000008152506003908162000157919062000428565b506040518060400160405280600481526020017f504b544400000000000000000000000000000000000000000000000000000000815250600490816200019e919062000428565b506127106008819055506200050f565b600081519050919050565b7f4e487b7100000000000000000000000000000000000000000000000000000000600052604160045260246000fd5b7f4e487b7100000000000000000000000000000000000000000000000000000000600052602260045260246000fd5b600060028204905060018216806200023057607f821691505b602082108103620002465762000245620001e8565b5b50919050565b60008190508160005260206000209050919050565b60006020601f8301049050919050565b600082821b905092915050565b600060088302620002b07fffffffffffffffffffffffffffffffffffffffffffffffffffffffffffffffff8262000271565b620002bc868362000271565b95508019841693508086168417925050509392505050565b6000819050919050565b6000819050919050565b60006200030962000303620002fd84620002d4565b620002de565b620002d4565b9050919050565b6000819050919050565b6200032583620002e8565b6200033d620003348262000310565b8484546200027e565b825550505050565b600090565b6200035462000345565b620003618184846200031a565b505050565b5b8181101562000389576200037d6000826200034a565b60018101905062000367565b5050565b601f821115620003d857620003a2816200024c565b620003ad8462000261565b81016020851015620003bd578190505b620003d5620003cc8562000261565b83018262000366565b50505b505050565b600082821c905092915050565b6000620003fd60001984600802620003dd565b1980831691505092915050565b6000620004188383620003ea565b9150826002028217905092915050565b6200043382620001ae565b67ffffffffffffffff8111156200044f576200044e620001b9565b5b6200045b825462000217565b620004688282856200038d565b600060209050601f831160018114620004a057600084156200048b578287015190505b6200049785826200040a565b86555062000507565b601f198416620004b0866200024c565b60005b82811015620004da57848901518255600182019150602085019450602081019050620004b3565b86831015620004fa5784890151620004f6601f891682620003ea565b8355505b6001600288020188555050505b505050505050565b611794806200051f6000396000f3fe6080604052600436106100e85760003560e01c806341ad765c1161008a578063a9059cbb11610059578063a9059cbb14610320578063b73fd7921461035d578063ce7c5d7f14610388578063dd62ed3e146103b8576100e8565b806341ad765c1461025057806354fd4d501461028d57806370a08231146102b857806395d89b41146102f5576100e8565b80632194f3a2116100c65780632194f3a21461018057806322604de2146101ab57806323b872dd146101e8578063313ce56714610225576100e8565b806306fdde03146100ed578063095ea7b31461011857806318160ddd14610155575b600080fd5b3480156100f957600080fd5b506101026103f5565b60405161010f91906111b5565b60405180910390f35b34801561012457600080fd5b5061013f600480360381019061013a9190611270565b610483565b60405161014c91906112cb565b60405180910390f35b34801561016157600080fd5b5061016a610575565b60405161017791906112f5565b60405180910390f35b34801561018c57600080fd5b5061019561057f565b6040516101a29190611331565b60405180910390f35b3480156101b757600080fd5b506101d260048036038101906101cd919061134c565b6105a5565b6040516101df91906112cb565b60405180910390f35b3480156101f457600080fd5b5061020f600480360381019061020a919061134c565b610698565b60405161021c91906112cb565b60405180910390f35b34801561023157600080fd5b5061023a61090a565b60405161024791906113bb565b60405180910390f35b34801561025c57600080fd5b50610277600480360381019061027291906113d6565b61091d565b60405161028491906112cb565b60405180910390f35b34801561029957600080fd5b506102a2610c4f565b6040516102af91906111b5565b60405180910390f35b3480156102c457600080fd5b506102df60048036038101906102da919061143d565b610cdd565b6040516102ec91906112f5565b60405180910390f35b34801561030157600080fd5b5061030a610d25565b60405161031791906111b5565b60405180910390f35b34801561032c57600080fd5b5061034760048036038101906103429190611270565b610db3565b60405161035491906112cb565b60405180910390f35b34801561036957600080fd5b50610372611024565b60405161037f91906112f5565b60405180910390f35b6103a2600480360381019061039d919061146a565b61102a565b6040516103af91906112cb565b60405180910390f35b3480156103c457600080fd5b506103df60048036038101906103da9190611497565b61109e565b6040516103ec91906112f5565b60405180910390f35b6003805461040290611506565b80601f016020809104026020016040519081016040528092919081815260200182805461042e90611506565b801561047b5780601f106104505761010080835404028352916020019161047b565b820191906000526020600020905b81548152906001019060200180831161045e57829003601f168201915b505050505081565b600081600160003373ffffffffffffffffffffffffffffffffffffffff1673ffffffffffffffffffffffffffffffffffffffff16815260200190815260200160002060008573ffffffffffffffffffffffffffffffffffffffff1673ffffffffffffffffffffffffffffffffffffffff168152602001908152602001600020819055508273ffffffffffffffffffffffffffffffffffffffff163373ffffffffffffffffffffffffffffffffffffffff167f8c5be1e5ebec7d5bd14f71427d1e84f3dd0314c0f7b2291e5b200ac8c7c3b9258460405161056391906112f5565b60405180910390a36001905092915050565b6000600254905090565b600760009054906101000a900473ffffffffffffffffffffffffffffffffffffffff1681565b600081600160008573ffffffffffffffffffffffffffffffffffffffff1673ffffffffffffffffffffffffffffffffffffffff16815260200190815260200160002060008673ffffffffffffffffffffffffffffffffffffffff1673ffffffffffffffffffffffffffffffffffffffff168152602001908152602001600020819055508373ffffffffffffffffffffffffffffffffffffffff168373ffffffffffffffffffffffffffffffffffffffff167f8c5be1e5ebec7d5bd14f71427d1e84f3dd0314c0f7b2291e5b200ac8c7c3b9258460405161068591906112f5565b60405180910390a3600190509392505050565b60008082116106dc576040517f08c379a00000000000000000000000000000000000000000000000000000000081526004016106d3906115a9565b60405180910390fd5b816000808673ffffffffffffffffffffffffffffffffffffffff1673ffffffffffffffffffffffffffffffffffffffff16815260200190815260200160002054101561075d576040517f08c379a00000000000000000000000000000000000000000000000000000000081526004016107549061163b565b60405180910390fd5b816000808673ffffffffffffffffffffffffffffffffffffffff1673ffffffffffffffffffffffffffffffffffffffff16815260200190815260200160002060008282546107ab919061168a565b92505081905550816000808573ffffffffffffffffffffffffffffffffffffffff1673ffffffffffffffffffffffffffffffffffffffff168152602001908152602001600020600082825461080091906116be565b9250508190555081600160008673ffffffffffffffffffffffffffffffffffffffff1673ffffffffffffffffffffffffffffffffffffffff16815260200190815260200160002060008573ffffffffffffffffffffffffffffffffffffffff1673ffffffffffffffffffffffffffffffffffffffff1681526020019081526020016000206000828254610893919061168a565b925050819055508273ffffffffffffffffffffffffffffffffffffffff168473ffffffffffffffffffffffffffffffffffffffff167fddf252ad1be2c89b69c2b068fc378daa952ba7f163c4a11628f55a4df523b3ef846040516108f791906112f5565b60405180910390a3600190509392505050565b600560009054906101000a900460ff1681565b6000808211610961576040517f08c379a0000000000000000000000000000000000000000000000000000000008152600401610958906115a9565b60405180910390fd5b816000808773ffffffffffffffffffffffffffffffffffffffff1673ffffffffffffffffffffffffffffffffffffffff1681526020019081526020016000205410156109e2576040517f08c379a00000000000000000000000000000000000000000000000000000000081526004016109d99061163b565b60405180910390fd5b81600160008773ffffffffffffffffffffffffffffffffffffffff1673ffffffffffffffffffffffffffffffffffffffff16815260200190815260200160002060008573ffffffffffffffffffffffffffffffffffffffff1673ffffffffffffffffffffffffffffffffffffffff168152602001908152602001600020541015610aa1576040517f08c379a0000000000000000000000000000000000000000000000000000000008152600401610a989061173e565b60405180910390fd5b816000808773ffffffffffffffffffffffffffffffffffffffff1673ffffffffffffffffffffffffffffffffffffffff1681526020019081526020016000206000828254610aef919061168a565b92505081905550816000808673ffffffffffffffffffffffffffffffffffffffff1673ffffffffffffffffffffffffffffffffffffffff1681526020019081526020016000206000828254610b4491906116be565b9250508190555081600160008773ffffffffffffffffffffffffffffffffffffffff1673ffffffffffffffffffffffffffffffffffffffff16815260200190815260200160002060008573ffffffffffffffffffffffffffffffffffffffff1673ffffffffffffffffffffffffffffffffffffffff1681526020019081526020016000206000828254610bd7919061168a565b925050819055508373ffffffffffffffffffffffffffffffffffffffff168573ffffffffffffffffffffffffffffffffffffffff167fddf252ad1be2c89b69c2b068fc378daa952ba7f163c4a11628f55a4df523b3ef84604051610c3b91906112f5565b60405180910390a360019050949350505050565b60068054610c5c90611506565b80601f0160208091040260200160405190810160405280929190818152602001828054610c8890611506565b8015610cd55780601f10610caa57610100808354040283529160200191610cd5565b820191906000526020600020905b815481529060010190602001808311610cb857829003601f168201915b505050505081565b60008060008373ffffffffffffffffffffffffffffffffffffffff1673ffffffffffffffffffffffffffffffffffffffff168152602001908152602001600020549050919050565b60048054610d3290611506565b80601f0160208091040260200160405190810160405280929190818152602001828054610d5e90611506565b8015610dab5780601f10610d8057610100808354040283529160200191610dab565b820191906000526020600020905b815481529060010190602001808311610d8e57829003601f168201915b505050505081565b6000808211610df7576040517f08c379a0000000000000000000000000000000000000000000000000000000008152600401610dee906115a9565b60405180910390fd5b816000803373ffffffffffffffffffffffffffffffffffffffff1673ffffffffffffffffffffffffffffffffffffffff168152602001908152602001600020541015610e78576040517f08c379a0000000000000000000000000000000000000000000000000000000008152600401610e6f9061163b565b60405180910390fd5b816000803373ffffffffffffffffffffffffffffffffffffffff1673ffffffffffffffffffffffffffffffffffffffff1681526020019081526020016000206000828254610ec6919061168a565b92505081905550816000808573ffffffffffffffffffffffffffffffffffffffff1673ffffffffffffffffffffffffffffffffffffffff1681526020019081526020016000206000828254610f1b91906116be565b9250508190555081600160008573ffffffffffffffffffffffffffffffffffffffff1673ffffffffffffffffffffffffffffffffffffffff16815260200190815260200160002060003373ffffffffffffffffffffffffffffffffffffffff1673ffffffffffffffffffffffffffffffffffffffff1681526020019081526020016000206000828254610fae91906116be565b925050819055508273ffffffffffffffffffffffffffffffffffffffff163373ffffffffffffffffffffffffffffffffffffffff167fddf252ad1be2c89b69c2b068fc378daa952ba7f163c4a11628f55a4df523b3ef8460405161101291906112f5565b60405180910390a36001905092915050565b60025481565b6000600760009054906101000a900473ffffffffffffffffffffffffffffffffffffffff1673ffffffffffffffffffffffffffffffffffffffff166108fc839081150290604051600060405180830381858888f19350505050158015611094573d6000803e3d6000fd5b5060019050919050565b6000600160008473ffffffffffffffffffffffffffffffffffffffff1673ffffffffffffffffffffffffffffffffffffffff16815260200190815260200160002060008373ffffffffffffffffffffffffffffffffffffffff1673ffffffffffffffffffffffffffffffffffffffff16815260200190815260200160002054905092915050565b600081519050919050565b600082825260208201905092915050565b60005b8381101561115f578082015181840152602081019050611144565b60008484015250505050565b6000601f19601f8301169050919050565b600061118782611125565b6111918185611130565b93506111a1818560208601611141565b6111aa8161116b565b840191505092915050565b600060208201905081810360008301526111cf818461117c565b905092915050565b600080fd5b600073ffffffffffffffffffffffffffffffffffffffff82169050919050565b6000611207826111dc565b9050919050565b611217816111fc565b811461122257600080fd5b50565b6000813590506112348161120e565b92915050565b6000819050919050565b61124d8161123a565b811461125857600080fd5b50565b60008135905061126a81611244565b92915050565b60008060408385031215611287576112866111d7565b5b600061129585828601611225565b92505060206112a68582860161125b565b9150509250929050565b60008115159050919050565b6112c5816112b0565b82525050565b60006020820190506112e060008301846112bc565b92915050565b6112ef8161123a565b82525050565b600060208201905061130a60008301846112e6565b92915050565b600061131b826111dc565b9050919050565b61132b81611310565b82525050565b60006020820190506113466000830184611322565b92915050565b600080600060608486031215611365576113646111d7565b5b600061137386828701611225565b935050602061138486828701611225565b92505060406113958682870161125b565b9150509250925092565b600060ff82169050919050565b6113b58161139f565b82525050565b60006020820190506113d060008301846113ac565b92915050565b600080600080608085870312156113f0576113ef6111d7565b5b60006113fe87828801611225565b945050602061140f87828801611225565b935050604061142087828801611225565b92505060606114318782880161125b565b91505092959194509250565b600060208284031215611453576114526111d7565b5b600061146184828501611225565b91505092915050565b6000602082840312156114805761147f6111d7565b5b600061148e8482850161125b565b91505092915050565b600080604083850312156114ae576114ad6111d7565b5b60006114bc85828601611225565b92505060206114cd85828601611225565b9150509250929050565b7f4e487b7100000000000000000000000000000000000000000000000000000000600052602260045260246000fd5b6000600282049050600182168061151e57607f821691505b602082108103611531576115306114d7565b5b50919050565b7f76616c7565206973206c6f776572207468616e20312c20796f752063616e742060008201527f7472616e73666572000000000000000000000000000000000000000000000000602082015250565b6000611593602883611130565b915061159e82611537565b604082019050919050565b600060208201905081810360008301526115c281611586565b9050919050565b7f73656e6465722076616c7565206e6565647320746f206265206869676865722060008201527f7468616e2073656e64696e672076616c75650000000000000000000000000000602082015250565b6000611625603283611130565b9150611630826115c9565b604082019050919050565b6000602082019050818103600083015261165481611618565b9050919050565b7f4e487b7100000000000000000000000000000000000000000000000000000000600052601160045260246000fd5b60006116958261123a565b91506116a08361123a565b92508282039050818111156116b8576116b761165b565b5b92915050565b60006116c98261123a565b91506116d48361123a565b92508282019050808211156116ec576116eb61165b565b5b92915050565b7f616c6c6f7765642076616c7565206372697465726961206e65766572206d6574600082015250565b6000611728602083611130565b9150611733826116f2565b602082019050919050565b600060208201905081810360008301526117578161171b565b905091905056fea264697066735822122023cc40d44c3dd36117353e4e42f05f742da0bd71c8200d345d8ff82b5e497a8064736f6c63430008110033",
  "immutableReferences": {},
  "source": "// SPDX-License-Identifier: MIT\npragma solidity ^0.8.7;\n\nimport \"./Token.sol\";\nimport \"./BaseToken.sol\";\n\ncontract PokemonTDToken {\n\n    Token public token;\n    uint256 uintOfEthCanBuy;\n    address payable ownerWallet;\n    address ownerWalletN;\n\n    event Bought(uint256 amount);\n    event Sold(uint256 amount);\n\n    constructor() {\n        token = new BaseToken();\n        uintOfEthCanBuy = 1000;\n        ownerWallet = payable(msg.sender);\n        ownerWalletN = msg.sender;\n    }\n\n    /*\n    * Buy Tokens from original wallet\n    */\n    function buy() payable public {\n        uint256 amountBuy = msg.value;\n        uint256 pkBalance = token.balanceOf(address(this));\n\n        uint256 amountBuyTokenSize = msg.value;\n\n        require(amountBuy > 0, \"You need to mention Ether or Wei to buy\");\n        require(amountBuyTokenSize <= pkBalance, \"Not Enough PokemonTD Left\");\n\n        token.transfer(msg.sender, amountBuyTokenSize);\n        ownerWallet.transfer(amountBuy);\n        emit Bought(amountBuyTokenSize);\n    }\n\n    /*\n    * Sell Tokens from owner to original wallet\n    */\n    function sell(uint256 _amount) payable public {\n        require(_amount > 0, \"You need to mention PokemonTD amount\");\n        uint256 allowance = token.allowance(msg.sender, address(this));\n        require(allowance > _amount, \"Please check the token allowance\");\n        token.transferFrom(msg.sender, address(this), _amount);\n        payable(msg.sender).transfer(_amount / uintOfEthCanBuy);\n        emit Sold(_amount / uintOfEthCanBuy);\n    }\n\n    /*\n    * Transfer a token to winner. If looser dont have tokens, the token will be transferred from the \n    * original wallet\n    */\n    function transferSingleTokenToWinner(address _to, address _from, uint256 _amount) public returns(uint256 balance) {\n        require(_amount > 0, \"You need to mention PokemonTD amount\");\n\n        uint256 balanceFromUser = token.balanceOf(_from);\n        if (balanceFromUser >= _amount) {\n            token.transferFrom(_from, _to, _amount);\n        } else {\n            token.transfer(_to, _amount);\n        }\n        \n        uint256 balanceFromUserFinal = token.balanceOf(_from);\n\n        return balanceFromUserFinal;\n    }\n\n    function transferSingleTokenToWinnerWithSpender(address _to, address _from, address _spender, uint256 _amount) public returns(uint256 balance) {\n        require(_amount > 0, \"You need to mention PokemonTD amount\");\n\n        uint256 balanceFromUser = token.balanceOf(_from);\n        if (balanceFromUser >= _amount) {\n            token.transferFromWithSpender(_from, _to, _spender, _amount);\n        } else {\n            token.transfer(_to, _amount);\n        }\n        \n        uint256 balanceFromUserFinal = token.balanceOf(_from);\n\n        return balanceFromUserFinal;\n    }\n\n    function approveSpenderSection(address _spender, uint256 _value) public returns(uint256 balance) {\n        token.approve(_spender, _value);\n        return token.allowance(msg.sender, _spender);\n    }\n\n    function approveSpenderFromOwner(address _owner, address _spender, uint256 _value) public returns(uint256 balance) {\n        token.approveSpender(_spender, _owner, _value);(_spender, _owner, _value);\n        return token.allowance(_owner, _spender);\n    }\n\n    function getAllowance(address _owner, address _spender) public returns(uint256 balance) {\n        return token.allowance(_owner, _spender);\n    }\n\n    /*\n    * get balance of original wallet\n    */\n    function getAmountCheck() payable public returns(uint256 amount) {\n        uint256 pkBalance = token.balanceOf(address(this));\n        return pkBalance;\n    }\n\n    /*\n    * get balance of current user\n    */\n    function currentBalance() public returns(uint256 balance) {\n        return token.balanceOf(msg.sender);\n    }\n\n    /*\n    * get balance of a user\n    */\n    function currentBalanceUser(address _useraddress) public returns(uint256 balance) {\n        return token.balanceOf(_useraddress);\n    }\n\n}",
  "sourcePath": "/Volumes/Development/NewLearning/GamifiedTodoList/todo-gamified-token/contracts/PokemonTDToken.sol",
  "compiler": {
    "name": "solc",
    "version": "0.8.17+commit.8df45f5f.Emscripten.clang"
  },
  "schemaVersion": "3.4.11",
  "updatedAt": "2023-02-01T18:39:24.753Z",
  "networkType": "ethereum",
  "devdoc": {
    "kind": "dev",
    "methods": {},
    "version": 1
  },
  "userdoc": {
    "kind": "user",
    "methods": {},
    "version": 1
  }
}