{
  "contractName": "PokemonTDToken",
  "abi": [
    {
      "inputs": [],
      "stateMutability": "nonpayable",
      "type": "constructor"
    },
    {
      "anonymous": false,
      "inputs": [
        {
          "indexed": false,
          "internalType": "uint256",
          "name": "amount",
          "type": "uint256"
        }
      ],
      "name": "Bought",
      "type": "event"
    },
    {
      "anonymous": false,
      "inputs": [
        {
          "indexed": false,
          "internalType": "uint256",
          "name": "amount",
          "type": "uint256"
        }
      ],
      "name": "Sold",
      "type": "event"
    },
    {
      "inputs": [],
      "name": "token",
      "outputs": [
        {
          "internalType": "contract Token",
          "name": "",
          "type": "address"
        }
      ],
      "stateMutability": "view",
      "type": "function",
      "constant": true
    },
    {
      "inputs": [],
      "name": "buy",
      "outputs": [],
      "stateMutability": "payable",
      "type": "function",
      "payable": true
    },
    {
      "inputs": [
        {
          "internalType": "uint256",
          "name": "_amount",
          "type": "uint256"
        }
      ],
      "name": "sell",
      "outputs": [],
      "stateMutability": "payable",
      "type": "function",
      "payable": true
    },
    {
      "inputs": [
        {
          "internalType": "address",
          "name": "_to",
          "type": "address"
        },
        {
          "internalType": "address",
          "name": "_from",
          "type": "address"
        },
        {
          "internalType": "uint256",
          "name": "_amount",
          "type": "uint256"
        }
      ],
      "name": "transferSingleTokenToWinner",
      "outputs": [
        {
          "internalType": "uint256",
          "name": "balance",
          "type": "uint256"
        }
      ],
      "stateMutability": "nonpayable",
      "type": "function"
    },
    {
      "inputs": [
        {
          "internalType": "address",
          "name": "_to",
          "type": "address"
        },
        {
          "internalType": "address",
          "name": "_from",
          "type": "address"
        },
        {
          "internalType": "address",
          "name": "_spender",
          "type": "address"
        },
        {
          "internalType": "uint256",
          "name": "_amount",
          "type": "uint256"
        }
      ],
      "name": "transferSingleTokenToWinnerWithSpender",
      "outputs": [
        {
          "internalType": "uint256",
          "name": "balance",
          "type": "uint256"
        }
      ],
      "stateMutability": "nonpayable",
      "type": "function"
    },
    {
      "inputs": [
        {
          "internalType": "address",
          "name": "_spender",
          "type": "address"
        },
        {
          "internalType": "uint256",
          "name": "_value",
          "type": "uint256"
        }
      ],
      "name": "approveSpenderSection",
      "outputs": [
        {
          "internalType": "uint256",
          "name": "balance",
          "type": "uint256"
        }
      ],
      "stateMutability": "nonpayable",
      "type": "function"
    },
    {
      "inputs": [
        {
          "internalType": "address",
          "name": "_owner",
          "type": "address"
        },
        {
          "internalType": "address",
          "name": "_spender",
          "type": "address"
        },
        {
          "internalType": "uint256",
          "name": "_value",
          "type": "uint256"
        }
      ],
      "name": "approveSpenderFromOwner",
      "outputs": [
        {
          "internalType": "uint256",
          "name": "balance",
          "type": "uint256"
        }
      ],
      "stateMutability": "nonpayable",
      "type": "function"
    },
    {
      "inputs": [
        {
          "internalType": "address",
          "name": "_owner",
          "type": "address"
        },
        {
          "internalType": "address",
          "name": "_spender",
          "type": "address"
        }
      ],
      "name": "getAllowance",
      "outputs": [
        {
          "internalType": "uint256",
          "name": "balance",
          "type": "uint256"
        }
      ],
      "stateMutability": "nonpayable",
      "type": "function"
    },
    {
      "inputs": [],
      "name": "getAmountCheck",
      "outputs": [
        {
          "internalType": "uint256",
          "name": "amount",
          "type": "uint256"
        }
      ],
      "stateMutability": "payable",
      "type": "function",
      "payable": true
    },
    {
      "inputs": [],
      "name": "currentBalance",
      "outputs": [
        {
          "internalType": "uint256",
          "name": "balance",
          "type": "uint256"
        }
      ],
      "stateMutability": "nonpayable",
      "type": "function"
    },
    {
      "inputs": [
        {
          "internalType": "address",
          "name": "_useraddress",
          "type": "address"
        }
      ],
      "name": "currentBalanceUser",
      "outputs": [
        {
          "internalType": "uint256",
          "name": "balance",
          "type": "uint256"
        }
      ],
      "stateMutability": "nonpayable",
      "type": "function"
    },
    {
      "inputs": [],
      "name": "decimals",
      "outputs": [
        {
          "internalType": "uint8",
          "name": "",
          "type": "uint8"
        }
      ],
      "stateMutability": "view",
      "type": "function",
      "constant": true
    },
    {
      "inputs": [],
      "name": "name",
      "outputs": [
        {
          "internalType": "string",
          "name": "",
          "type": "string"
        }
      ],
      "stateMutability": "view",
      "type": "function",
      "constant": true
    },
    {
      "inputs": [],
      "name": "symbol",
      "outputs": [
        {
          "internalType": "string",
          "name": "",
          "type": "string"
        }
      ],
      "stateMutability": "view",
      "type": "function",
      "constant": true
    },
    {
      "inputs": [],
      "name": "balanceOf",
      "outputs": [
        {
          "internalType": "uint256",
          "name": "balance",
          "type": "uint256"
        }
      ],
      "stateMutability": "nonpayable",
      "type": "function"
    }
  ],
  "bytecode": "0x608060405234801561001057600080fd5b5060405161001d90610109565b604051809103906000f080158015610039573d6000803e3d6000fd5b506000806101000a81548173ffffffffffffffffffffffffffffffffffffffff021916908373ffffffffffffffffffffffffffffffffffffffff1602179055506103e860018190555033600260006101000a81548173ffffffffffffffffffffffffffffffffffffffff021916908373ffffffffffffffffffffffffffffffffffffffff16021790555033600360006101000a81548173ffffffffffffffffffffffffffffffffffffffff021916908373ffffffffffffffffffffffffffffffffffffffff160217905550610117565b611e3980620020e883390190565b611fc180620001276000396000f3fe6080604052600436106100e85760003560e01c80636d95c0dc1161008a578063a6f2ae3a11610059578063a6f2ae3a14610325578063ce845d1d1461032f578063e4849b321461035a578063fc0c546a14610376576100e8565b80636d95c0dc14610255578063722713f7146102925780638d072678146102bd57806395d89b41146102fa576100e8565b80630af4187d116100c65780630af4187d14610192578063313ce567146101cf578063331fbd25146101fa5780634649a3c114610218576100e8565b8063011cda54146100ed57806303cf0e341461012a57806306fdde0314610167575b600080fd5b3480156100f957600080fd5b50610114600480360381019061010f91906116a7565b6103a1565b6040516101219190611709565b60405180910390f35b34801561013657600080fd5b50610151600480360381019061014c9190611724565b6104ec565b60405161015e9190611709565b60405180910390f35b34801561017357600080fd5b5061017c610634565b60405161018991906117f4565b60405180910390f35b34801561019e57600080fd5b506101b960048036038101906101b49190611816565b6106cf565b6040516101c69190611709565b60405180910390f35b3480156101db57600080fd5b506101e4610778565b6040516101f19190611872565b60405180910390f35b61020261080f565b60405161020f9190611709565b60405180910390f35b34801561022457600080fd5b5061023f600480360381019061023a91906116a7565b6108b7565b60405161024c9190611709565b60405180910390f35b34801561026157600080fd5b5061027c6004803603810190610277919061188d565b610b96565b6040516102899190611709565b60405180910390f35b34801561029e57600080fd5b506102a7610e78565b6040516102b49190611709565b60405180910390f35b3480156102c957600080fd5b506102e460048036038101906102df91906118f4565b610f1c565b6040516102f19190611709565b60405180910390f35b34801561030657600080fd5b5061030f610fc2565b60405161031c91906117f4565b60405180910390f35b61032d61105d565b005b34801561033b57600080fd5b506103446112d2565b6040516103519190611709565b60405180910390f35b610374600480360381019061036f9190611921565b611376565b005b34801561038257600080fd5b5061038b6115db565b60405161039891906119ad565b60405180910390f35b60008060009054906101000a900473ffffffffffffffffffffffffffffffffffffffff1673ffffffffffffffffffffffffffffffffffffffff166322604de28486856040518463ffffffff1660e01b8152600401610401939291906119d7565b6020604051808303816000875af1158015610420573d6000803e3d6000fd5b505050506040513d601f19601f820116820180604052508101906104449190611a46565b5060008054906101000a900473ffffffffffffffffffffffffffffffffffffffff1673ffffffffffffffffffffffffffffffffffffffff1663dd62ed3e85856040518363ffffffff1660e01b81526004016104a0929190611a73565b6020604051808303816000875af11580156104bf573d6000803e3d6000fd5b505050506040513d601f19601f820116820180604052508101906104e39190611ab1565b90509392505050565b60008060009054906101000a900473ffffffffffffffffffffffffffffffffffffffff1673ffffffffffffffffffffffffffffffffffffffff1663095ea7b384846040518363ffffffff1660e01b815260040161054a929190611ade565b6020604051808303816000875af1158015610569573d6000803e3d6000fd5b505050506040513d601f19601f8201168201806040525081019061058d9190611a46565b5060008054906101000a900473ffffffffffffffffffffffffffffffffffffffff1673ffffffffffffffffffffffffffffffffffffffff1663dd62ed3e33856040518363ffffffff1660e01b81526004016105e9929190611a73565b6020604051808303816000875af1158015610608573d6000803e3d6000fd5b505050506040513d601f19601f8201168201806040525081019061062c9190611ab1565b905092915050565b606060008054906101000a900473ffffffffffffffffffffffffffffffffffffffff1673ffffffffffffffffffffffffffffffffffffffff166306fdde036040518163ffffffff1660e01b8152600401600060405180830381865afa1580156106a1573d6000803e3d6000fd5b505050506040513d6000823e3d601f19601f820116820180604052508101906106ca9190611c2d565b905090565b60008060009054906101000a900473ffffffffffffffffffffffffffffffffffffffff1673ffffffffffffffffffffffffffffffffffffffff1663dd62ed3e84846040518363ffffffff1660e01b815260040161072d929190611a73565b6020604051808303816000875af115801561074c573d6000803e3d6000fd5b505050506040513d601f19601f820116820180604052508101906107709190611ab1565b905092915050565b60008060009054906101000a900473ffffffffffffffffffffffffffffffffffffffff1673ffffffffffffffffffffffffffffffffffffffff1663313ce5676040518163ffffffff1660e01b8152600401602060405180830381865afa1580156107e6573d6000803e3d6000fd5b505050506040513d601f19601f8201168201806040525081019061080a9190611ca2565b905090565b60008060008054906101000a900473ffffffffffffffffffffffffffffffffffffffff1673ffffffffffffffffffffffffffffffffffffffff166370a08231306040518263ffffffff1660e01b815260040161086b9190611ccf565b6020604051808303816000875af115801561088a573d6000803e3d6000fd5b505050506040513d601f19601f820116820180604052508101906108ae9190611ab1565b90508091505090565b60008082116108fb576040517f08c379a00000000000000000000000000000000000000000000000000000000081526004016108f290611d5c565b60405180910390fd5b60008060009054906101000a900473ffffffffffffffffffffffffffffffffffffffff1673ffffffffffffffffffffffffffffffffffffffff166370a08231856040518263ffffffff1660e01b81526004016109579190611ccf565b6020604051808303816000875af1158015610976573d6000803e3d6000fd5b505050506040513d601f19601f8201168201806040525081019061099a9190611ab1565b9050828110610a495760008054906101000a900473ffffffffffffffffffffffffffffffffffffffff1673ffffffffffffffffffffffffffffffffffffffff166323b872dd8587866040518463ffffffff1660e01b8152600401610a00939291906119d7565b6020604051808303816000875af1158015610a1f573d6000803e3d6000fd5b505050506040513d601f19601f82011682018060405250810190610a439190611a46565b50610ae9565b60008054906101000a900473ffffffffffffffffffffffffffffffffffffffff1673ffffffffffffffffffffffffffffffffffffffff1663a9059cbb86856040518363ffffffff1660e01b8152600401610aa4929190611ade565b6020604051808303816000875af1158015610ac3573d6000803e3d6000fd5b505050506040513d601f19601f82011682018060405250810190610ae79190611a46565b505b60008060009054906101000a900473ffffffffffffffffffffffffffffffffffffffff1673ffffffffffffffffffffffffffffffffffffffff166370a08231866040518263ffffffff1660e01b8152600401610b459190611ccf565b6020604051808303816000875af1158015610b64573d6000803e3d6000fd5b505050506040513d601f19601f82011682018060405250810190610b889190611ab1565b905080925050509392505050565b6000808211610bda576040517f08c379a0000000000000000000000000000000000000000000000000000000008152600401610bd190611d5c565b60405180910390fd5b60008060009054906101000a900473ffffffffffffffffffffffffffffffffffffffff1673ffffffffffffffffffffffffffffffffffffffff166370a08231866040518263ffffffff1660e01b8152600401610c369190611ccf565b6020604051808303816000875af1158015610c55573d6000803e3d6000fd5b505050506040513d601f19601f82011682018060405250810190610c799190611ab1565b9050828110610d2a5760008054906101000a900473ffffffffffffffffffffffffffffffffffffffff1673ffffffffffffffffffffffffffffffffffffffff166341ad765c868887876040518563ffffffff1660e01b8152600401610ce19493929190611d7c565b6020604051808303816000875af1158015610d00573d6000803e3d6000fd5b505050506040513d601f19601f82011682018060405250810190610d249190611a46565b50610dca565b60008054906101000a900473ffffffffffffffffffffffffffffffffffffffff1673ffffffffffffffffffffffffffffffffffffffff1663a9059cbb87856040518363ffffffff1660e01b8152600401610d85929190611ade565b6020604051808303816000875af1158015610da4573d6000803e3d6000fd5b505050506040513d601f19601f82011682018060405250810190610dc89190611a46565b505b60008060009054906101000a900473ffffffffffffffffffffffffffffffffffffffff1673ffffffffffffffffffffffffffffffffffffffff166370a08231876040518263ffffffff1660e01b8152600401610e269190611ccf565b6020604051808303816000875af1158015610e45573d6000803e3d6000fd5b505050506040513d601f19601f82011682018060405250810190610e699190611ab1565b90508092505050949350505050565b60008060009054906101000a900473ffffffffffffffffffffffffffffffffffffffff1673ffffffffffffffffffffffffffffffffffffffff166370a08231336040518263ffffffff1660e01b8152600401610ed49190611ccf565b6020604051808303816000875af1158015610ef3573d6000803e3d6000fd5b505050506040513d601f19601f82011682018060405250810190610f179190611ab1565b905090565b60008060009054906101000a900473ffffffffffffffffffffffffffffffffffffffff1673ffffffffffffffffffffffffffffffffffffffff166370a08231836040518263ffffffff1660e01b8152600401610f789190611ccf565b6020604051808303816000875af1158015610f97573d6000803e3d6000fd5b505050506040513d601f19601f82011682018060405250810190610fbb9190611ab1565b9050919050565b606060008054906101000a900473ffffffffffffffffffffffffffffffffffffffff1673ffffffffffffffffffffffffffffffffffffffff166395d89b416040518163ffffffff1660e01b8152600401600060405180830381865afa15801561102f573d6000803e3d6000fd5b505050506040513d6000823e3d601f19601f820116820180604052508101906110589190611c2d565b905090565b600034905060008060009054906101000a900473ffffffffffffffffffffffffffffffffffffffff1673ffffffffffffffffffffffffffffffffffffffff166370a08231306040518263ffffffff1660e01b81526004016110be9190611ccf565b6020604051808303816000875af11580156110dd573d6000803e3d6000fd5b505050506040513d601f19601f820116820180604052508101906111019190611ab1565b905060003490506000831161114b576040517f08c379a000000000000000000000000000000000000000000000000000000000815260040161114290611e33565b60405180910390fd5b8181111561118e576040517f08c379a000000000000000000000000000000000000000000000000000000000815260040161118590611e9f565b60405180910390fd5b60008054906101000a900473ffffffffffffffffffffffffffffffffffffffff1673ffffffffffffffffffffffffffffffffffffffff1663a9059cbb33836040518363ffffffff1660e01b81526004016111e9929190611ade565b6020604051808303816000875af1158015611208573d6000803e3d6000fd5b505050506040513d601f19601f8201168201806040525081019061122c9190611a46565b50600260009054906101000a900473ffffffffffffffffffffffffffffffffffffffff1673ffffffffffffffffffffffffffffffffffffffff166108fc849081150290604051600060405180830381858888f19350505050158015611295573d6000803e3d6000fd5b507f4e08ba899977cf7d4c2964bce71c6b9a7ef76ee5166a4c1249a1e08016e33ef1816040516112c59190611709565b60405180910390a1505050565b60008060009054906101000a900473ffffffffffffffffffffffffffffffffffffffff1673ffffffffffffffffffffffffffffffffffffffff166370a08231336040518263ffffffff1660e01b815260040161132e9190611ccf565b6020604051808303816000875af115801561134d573d6000803e3d6000fd5b505050506040513d601f19601f820116820180604052508101906113719190611ab1565b905090565b600081116113b9576040517f08c379a00000000000000000000000000000000000000000000000000000000081526004016113b090611d5c565b60405180910390fd5b60008060009054906101000a900473ffffffffffffffffffffffffffffffffffffffff1673ffffffffffffffffffffffffffffffffffffffff1663dd62ed3e33306040518363ffffffff1660e01b8152600401611417929190611a73565b6020604051808303816000875af1158015611436573d6000803e3d6000fd5b505050506040513d601f19601f8201168201806040525081019061145a9190611ab1565b905081811161149e576040517f08c379a000000000000000000000000000000000000000000000000000000000815260040161149590611f0b565b60405180910390fd5b60008054906101000a900473ffffffffffffffffffffffffffffffffffffffff1673ffffffffffffffffffffffffffffffffffffffff166323b872dd3330856040518463ffffffff1660e01b81526004016114fb939291906119d7565b6020604051808303816000875af115801561151a573d6000803e3d6000fd5b505050506040513d601f19601f8201168201806040525081019061153e9190611a46565b503373ffffffffffffffffffffffffffffffffffffffff166108fc600154846115679190611f5a565b9081150290604051600060405180830381858888f19350505050158015611592573d6000803e3d6000fd5b507f92f64ca637d023f354075a4be751b169c1a8a9ccb6d33cdd0cb3520543995727600154836115c29190611f5a565b6040516115cf9190611709565b60405180910390a15050565b60008054906101000a900473ffffffffffffffffffffffffffffffffffffffff1681565b6000604051905090565b600080fd5b600080fd5b600073ffffffffffffffffffffffffffffffffffffffff82169050919050565b600061163e82611613565b9050919050565b61164e81611633565b811461165957600080fd5b50565b60008135905061166b81611645565b92915050565b6000819050919050565b61168481611671565b811461168f57600080fd5b50565b6000813590506116a18161167b565b92915050565b6000806000606084860312156116c0576116bf611609565b5b60006116ce8682870161165c565b93505060206116df8682870161165c565b92505060406116f086828701611692565b9150509250925092565b61170381611671565b82525050565b600060208201905061171e60008301846116fa565b92915050565b6000806040838503121561173b5761173a611609565b5b60006117498582860161165c565b925050602061175a85828601611692565b9150509250929050565b600081519050919050565b600082825260208201905092915050565b60005b8381101561179e578082015181840152602081019050611783565b60008484015250505050565b6000601f19601f8301169050919050565b60006117c682611764565b6117d0818561176f565b93506117e0818560208601611780565b6117e9816117aa565b840191505092915050565b6000602082019050818103600083015261180e81846117bb565b905092915050565b6000806040838503121561182d5761182c611609565b5b600061183b8582860161165c565b925050602061184c8582860161165c565b9150509250929050565b600060ff82169050919050565b61186c81611856565b82525050565b60006020820190506118876000830184611863565b92915050565b600080600080608085870312156118a7576118a6611609565b5b60006118b58782880161165c565b94505060206118c68782880161165c565b93505060406118d78782880161165c565b92505060606118e887828801611692565b91505092959194509250565b60006020828403121561190a57611909611609565b5b60006119188482850161165c565b91505092915050565b60006020828403121561193757611936611609565b5b600061194584828501611692565b91505092915050565b6000819050919050565b600061197361196e61196984611613565b61194e565b611613565b9050919050565b600061198582611958565b9050919050565b60006119978261197a565b9050919050565b6119a78161198c565b82525050565b60006020820190506119c2600083018461199e565b92915050565b6119d181611633565b82525050565b60006060820190506119ec60008301866119c8565b6119f960208301856119c8565b611a0660408301846116fa565b949350505050565b60008115159050919050565b611a2381611a0e565b8114611a2e57600080fd5b50565b600081519050611a4081611a1a565b92915050565b600060208284031215611a5c57611a5b611609565b5b6000611a6a84828501611a31565b91505092915050565b6000604082019050611a8860008301856119c8565b611a9560208301846119c8565b9392505050565b600081519050611aab8161167b565b92915050565b600060208284031215611ac757611ac6611609565b5b6000611ad584828501611a9c565b91505092915050565b6000604082019050611af360008301856119c8565b611b0060208301846116fa565b9392505050565b600080fd5b600080fd5b7f4e487b7100000000000000000000000000000000000000000000000000000000600052604160045260246000fd5b611b49826117aa565b810181811067ffffffffffffffff82111715611b6857611b67611b11565b5b80604052505050565b6000611b7b6115ff565b9050611b878282611b40565b919050565b600067ffffffffffffffff821115611ba757611ba6611b11565b5b611bb0826117aa565b9050602081019050919050565b6000611bd0611bcb84611b8c565b611b71565b905082815260208101848484011115611bec57611beb611b0c565b5b611bf7848285611780565b509392505050565b600082601f830112611c1457611c13611b07565b5b8151611c24848260208601611bbd565b91505092915050565b600060208284031215611c4357611c42611609565b5b600082015167ffffffffffffffff811115611c6157611c6061160e565b5b611c6d84828501611bff565b91505092915050565b611c7f81611856565b8114611c8a57600080fd5b50565b600081519050611c9c81611c76565b92915050565b600060208284031215611cb857611cb7611609565b5b6000611cc684828501611c8d565b91505092915050565b6000602082019050611ce460008301846119c8565b92915050565b7f596f75206e65656420746f206d656e74696f6e20506f6b656d6f6e544420616d60008201527f6f756e7400000000000000000000000000000000000000000000000000000000602082015250565b6000611d4660248361176f565b9150611d5182611cea565b604082019050919050565b60006020820190508181036000830152611d7581611d39565b9050919050565b6000608082019050611d9160008301876119c8565b611d9e60208301866119c8565b611dab60408301856119c8565b611db860608301846116fa565b95945050505050565b7f596f75206e65656420746f206d656e74696f6e204574686572206f722057656960008201527f20746f2062757900000000000000000000000000000000000000000000000000602082015250565b6000611e1d60278361176f565b9150611e2882611dc1565b604082019050919050565b60006020820190508181036000830152611e4c81611e10565b9050919050565b7f4e6f7420456e6f75676820506f6b656d6f6e5444204c65667400000000000000600082015250565b6000611e8960198361176f565b9150611e9482611e53565b602082019050919050565b60006020820190508181036000830152611eb881611e7c565b9050919050565b7f506c6561736520636865636b2074686520746f6b656e20616c6c6f77616e6365600082015250565b6000611ef560208361176f565b9150611f0082611ebf565b602082019050919050565b60006020820190508181036000830152611f2481611ee8565b9050919050565b7f4e487b7100000000000000000000000000000000000000000000000000000000600052601260045260246000fd5b6000611f6582611671565b9150611f7083611671565b925082611f8057611f7f611f2b565b5b82820490509291505056fea26469706673582212208cbe31916fe10e9ef9648b8fee4801372a78b815fc2f0c448d75f380ca68751564736f6c6343000811003360806040526040518060400160405280600381526020017f312e300000000000000000000000000000000000000000000000000000000000815250600590816200004a919062000428565b503480156200005857600080fd5b5068056bc75e2d6310000060028190555033600660006101000a81548173ffffffffffffffffffffffffffffffffffffffff021916908373ffffffffffffffffffffffffffffffffffffffff160217905550600254600080600660009054906101000a900473ffffffffffffffffffffffffffffffffffffffff1673ffffffffffffffffffffffffffffffffffffffff1673ffffffffffffffffffffffffffffffffffffffff168152602001908152602001600020819055506040518060400160405280600981526020017f506f6b656d6f6e544400000000000000000000000000000000000000000000008152506003908162000157919062000428565b506040518060400160405280600481526020017f504b544400000000000000000000000000000000000000000000000000000000815250600490816200019e919062000428565b506127106007819055506200050f565b600081519050919050565b7f4e487b7100000000000000000000000000000000000000000000000000000000600052604160045260246000fd5b7f4e487b7100000000000000000000000000000000000000000000000000000000600052602260045260246000fd5b600060028204905060018216806200023057607f821691505b602082108103620002465762000245620001e8565b5b50919050565b60008190508160005260206000209050919050565b60006020601f8301049050919050565b600082821b905092915050565b600060088302620002b07fffffffffffffffffffffffffffffffffffffffffffffffffffffffffffffffff8262000271565b620002bc868362000271565b95508019841693508086168417925050509392505050565b6000819050919050565b6000819050919050565b60006200030962000303620002fd84620002d4565b620002de565b620002d4565b9050919050565b6000819050919050565b6200032583620002e8565b6200033d620003348262000310565b8484546200027e565b825550505050565b600090565b6200035462000345565b620003618184846200031a565b505050565b5b8181101562000389576200037d6000826200034a565b60018101905062000367565b5050565b601f821115620003d857620003a2816200024c565b620003ad8462000261565b81016020851015620003bd578190505b620003d5620003cc8562000261565b83018262000366565b50505b505050565b600082821c905092915050565b6000620003fd60001984600802620003dd565b1980831691505092915050565b6000620004188383620003ea565b9150826002028217905092915050565b6200043382620001ae565b67ffffffffffffffff8111156200044f576200044e620001b9565b5b6200045b825462000217565b620004688282856200038d565b600060209050601f831160018114620004a057600084156200048b578287015190505b6200049785826200040a565b86555062000507565b601f198416620004b0866200024c565b60005b82811015620004da57848901518255600182019150602085019450602081019050620004b3565b86831015620004fa5784890151620004f6601f891682620003ea565b8355505b6001600288020188555050505b505050505050565b61191a806200051f6000396000f3fe6080604052600436106100fe5760003560e01c806354fd4d5011610095578063b09f126611610064578063b09f126614610373578063b73fd7921461039e578063ce7c5d7f146103c9578063d28d8852146103f9578063dd62ed3e14610424576100fe565b806354fd4d50146102a357806370a08231146102ce57806395d89b411461030b578063a9059cbb14610336576100fe565b806322604de2116100d157806322604de2146101c157806323b872dd146101fe578063313ce5671461023b57806341ad765c14610266576100fe565b806306fdde0314610103578063095ea7b31461012e57806318160ddd1461016b5780632194f3a214610196575b600080fd5b34801561010f57600080fd5b50610118610461565b604051610125919061133b565b60405180910390f35b34801561013a57600080fd5b50610155600480360381019061015091906113f6565b6104f3565b6040516101629190611451565b60405180910390f35b34801561017757600080fd5b506101806105e5565b60405161018d919061147b565b60405180910390f35b3480156101a257600080fd5b506101ab6105ef565b6040516101b891906114b7565b60405180910390f35b3480156101cd57600080fd5b506101e860048036038101906101e391906114d2565b610615565b6040516101f59190611451565b60405180910390f35b34801561020a57600080fd5b50610225600480360381019061022091906114d2565b610708565b6040516102329190611451565b60405180910390f35b34801561024757600080fd5b5061025061097a565b60405161025d9190611541565b60405180910390f35b34801561027257600080fd5b5061028d6004803603810190610288919061155c565b610983565b60405161029a9190611451565b60405180910390f35b3480156102af57600080fd5b506102b8610cb5565b6040516102c5919061133b565b60405180910390f35b3480156102da57600080fd5b506102f560048036038101906102f091906115c3565b610d43565b604051610302919061147b565b60405180910390f35b34801561031757600080fd5b50610320610d8b565b60405161032d919061133b565b60405180910390f35b34801561034257600080fd5b5061035d600480360381019061035891906113f6565b610e1d565b60405161036a9190611451565b60405180910390f35b34801561037f57600080fd5b5061038861108e565b604051610395919061133b565b60405180910390f35b3480156103aa57600080fd5b506103b361111c565b6040516103c0919061147b565b60405180910390f35b6103e360048036038101906103de91906115f0565b611122565b6040516103f09190611451565b60405180910390f35b34801561040557600080fd5b5061040e611196565b60405161041b919061133b565b60405180910390f35b34801561043057600080fd5b5061044b6004803603810190610446919061161d565b611224565b604051610458919061147b565b60405180910390f35b6060600380546104709061168c565b80601f016020809104026020016040519081016040528092919081815260200182805461049c9061168c565b80156104e95780601f106104be576101008083540402835291602001916104e9565b820191906000526020600020905b8154815290600101906020018083116104cc57829003601f168201915b5050505050905090565b600081600160003373ffffffffffffffffffffffffffffffffffffffff1673ffffffffffffffffffffffffffffffffffffffff16815260200190815260200160002060008573ffffffffffffffffffffffffffffffffffffffff1673ffffffffffffffffffffffffffffffffffffffff168152602001908152602001600020819055508273ffffffffffffffffffffffffffffffffffffffff163373ffffffffffffffffffffffffffffffffffffffff167f8c5be1e5ebec7d5bd14f71427d1e84f3dd0314c0f7b2291e5b200ac8c7c3b925846040516105d3919061147b565b60405180910390a36001905092915050565b6000600254905090565b600660009054906101000a900473ffffffffffffffffffffffffffffffffffffffff1681565b600081600160008573ffffffffffffffffffffffffffffffffffffffff1673ffffffffffffffffffffffffffffffffffffffff16815260200190815260200160002060008673ffffffffffffffffffffffffffffffffffffffff1673ffffffffffffffffffffffffffffffffffffffff168152602001908152602001600020819055508373ffffffffffffffffffffffffffffffffffffffff168373ffffffffffffffffffffffffffffffffffffffff167f8c5be1e5ebec7d5bd14f71427d1e84f3dd0314c0f7b2291e5b200ac8c7c3b925846040516106f5919061147b565b60405180910390a3600190509392505050565b600080821161074c576040517f08c379a00000000000000000000000000000000000000000000000000000000081526004016107439061172f565b60405180910390fd5b816000808673ffffffffffffffffffffffffffffffffffffffff1673ffffffffffffffffffffffffffffffffffffffff1681526020019081526020016000205410156107cd576040517f08c379a00000000000000000000000000000000000000000000000000000000081526004016107c4906117c1565b60405180910390fd5b816000808673ffffffffffffffffffffffffffffffffffffffff1673ffffffffffffffffffffffffffffffffffffffff168152602001908152602001600020600082825461081b9190611810565b92505081905550816000808573ffffffffffffffffffffffffffffffffffffffff1673ffffffffffffffffffffffffffffffffffffffff16815260200190815260200160002060008282546108709190611844565b9250508190555081600160008673ffffffffffffffffffffffffffffffffffffffff1673ffffffffffffffffffffffffffffffffffffffff16815260200190815260200160002060008573ffffffffffffffffffffffffffffffffffffffff1673ffffffffffffffffffffffffffffffffffffffff16815260200190815260200160002060008282546109039190611810565b925050819055508273ffffffffffffffffffffffffffffffffffffffff168473ffffffffffffffffffffffffffffffffffffffff167fddf252ad1be2c89b69c2b068fc378daa952ba7f163c4a11628f55a4df523b3ef84604051610967919061147b565b60405180910390a3600190509392505050565b60006012905090565b60008082116109c7576040517f08c379a00000000000000000000000000000000000000000000000000000000081526004016109be9061172f565b60405180910390fd5b816000808773ffffffffffffffffffffffffffffffffffffffff1673ffffffffffffffffffffffffffffffffffffffff168152602001908152602001600020541015610a48576040517f08c379a0000000000000000000000000000000000000000000000000000000008152600401610a3f906117c1565b60405180910390fd5b81600160008773ffffffffffffffffffffffffffffffffffffffff1673ffffffffffffffffffffffffffffffffffffffff16815260200190815260200160002060008573ffffffffffffffffffffffffffffffffffffffff1673ffffffffffffffffffffffffffffffffffffffff168152602001908152602001600020541015610b07576040517f08c379a0000000000000000000000000000000000000000000000000000000008152600401610afe906118c4565b60405180910390fd5b816000808773ffffffffffffffffffffffffffffffffffffffff1673ffffffffffffffffffffffffffffffffffffffff1681526020019081526020016000206000828254610b559190611810565b92505081905550816000808673ffffffffffffffffffffffffffffffffffffffff1673ffffffffffffffffffffffffffffffffffffffff1681526020019081526020016000206000828254610baa9190611844565b9250508190555081600160008773ffffffffffffffffffffffffffffffffffffffff1673ffffffffffffffffffffffffffffffffffffffff16815260200190815260200160002060008573ffffffffffffffffffffffffffffffffffffffff1673ffffffffffffffffffffffffffffffffffffffff1681526020019081526020016000206000828254610c3d9190611810565b925050819055508373ffffffffffffffffffffffffffffffffffffffff168573ffffffffffffffffffffffffffffffffffffffff167fddf252ad1be2c89b69c2b068fc378daa952ba7f163c4a11628f55a4df523b3ef84604051610ca1919061147b565b60405180910390a360019050949350505050565b60058054610cc29061168c565b80601f0160208091040260200160405190810160405280929190818152602001828054610cee9061168c565b8015610d3b5780601f10610d1057610100808354040283529160200191610d3b565b820191906000526020600020905b815481529060010190602001808311610d1e57829003601f168201915b505050505081565b60008060008373ffffffffffffffffffffffffffffffffffffffff1673ffffffffffffffffffffffffffffffffffffffff168152602001908152602001600020549050919050565b606060048054610d9a9061168c565b80601f0160208091040260200160405190810160405280929190818152602001828054610dc69061168c565b8015610e135780601f10610de857610100808354040283529160200191610e13565b820191906000526020600020905b815481529060010190602001808311610df657829003601f168201915b5050505050905090565b6000808211610e61576040517f08c379a0000000000000000000000000000000000000000000000000000000008152600401610e589061172f565b60405180910390fd5b816000803373ffffffffffffffffffffffffffffffffffffffff1673ffffffffffffffffffffffffffffffffffffffff168152602001908152602001600020541015610ee2576040517f08c379a0000000000000000000000000000000000000000000000000000000008152600401610ed9906117c1565b60405180910390fd5b816000803373ffffffffffffffffffffffffffffffffffffffff1673ffffffffffffffffffffffffffffffffffffffff1681526020019081526020016000206000828254610f309190611810565b92505081905550816000808573ffffffffffffffffffffffffffffffffffffffff1673ffffffffffffffffffffffffffffffffffffffff1681526020019081526020016000206000828254610f859190611844565b9250508190555081600160008573ffffffffffffffffffffffffffffffffffffffff1673ffffffffffffffffffffffffffffffffffffffff16815260200190815260200160002060003373ffffffffffffffffffffffffffffffffffffffff1673ffffffffffffffffffffffffffffffffffffffff16815260200190815260200160002060008282546110189190611844565b925050819055508273ffffffffffffffffffffffffffffffffffffffff163373ffffffffffffffffffffffffffffffffffffffff167fddf252ad1be2c89b69c2b068fc378daa952ba7f163c4a11628f55a4df523b3ef8460405161107c919061147b565b60405180910390a36001905092915050565b6004805461109b9061168c565b80601f01602080910402602001604051908101604052809291908181526020018280546110c79061168c565b80156111145780601f106110e957610100808354040283529160200191611114565b820191906000526020600020905b8154815290600101906020018083116110f757829003601f168201915b505050505081565b60025481565b6000600660009054906101000a900473ffffffffffffffffffffffffffffffffffffffff1673ffffffffffffffffffffffffffffffffffffffff166108fc839081150290604051600060405180830381858888f1935050505015801561118c573d6000803e3d6000fd5b5060019050919050565b600380546111a39061168c565b80601f01602080910402602001604051908101604052809291908181526020018280546111cf9061168c565b801561121c5780601f106111f15761010080835404028352916020019161121c565b820191906000526020600020905b8154815290600101906020018083116111ff57829003601f168201915b505050505081565b6000600160008473ffffffffffffffffffffffffffffffffffffffff1673ffffffffffffffffffffffffffffffffffffffff16815260200190815260200160002060008373ffffffffffffffffffffffffffffffffffffffff1673ffffffffffffffffffffffffffffffffffffffff16815260200190815260200160002054905092915050565b600081519050919050565b600082825260208201905092915050565b60005b838110156112e55780820151818401526020810190506112ca565b60008484015250505050565b6000601f19601f8301169050919050565b600061130d826112ab565b61131781856112b6565b93506113278185602086016112c7565b611330816112f1565b840191505092915050565b600060208201905081810360008301526113558184611302565b905092915050565b600080fd5b600073ffffffffffffffffffffffffffffffffffffffff82169050919050565b600061138d82611362565b9050919050565b61139d81611382565b81146113a857600080fd5b50565b6000813590506113ba81611394565b92915050565b6000819050919050565b6113d3816113c0565b81146113de57600080fd5b50565b6000813590506113f0816113ca565b92915050565b6000806040838503121561140d5761140c61135d565b5b600061141b858286016113ab565b925050602061142c858286016113e1565b9150509250929050565b60008115159050919050565b61144b81611436565b82525050565b60006020820190506114666000830184611442565b92915050565b611475816113c0565b82525050565b6000602082019050611490600083018461146c565b92915050565b60006114a182611362565b9050919050565b6114b181611496565b82525050565b60006020820190506114cc60008301846114a8565b92915050565b6000806000606084860312156114eb576114ea61135d565b5b60006114f9868287016113ab565b935050602061150a868287016113ab565b925050604061151b868287016113e1565b9150509250925092565b600060ff82169050919050565b61153b81611525565b82525050565b60006020820190506115566000830184611532565b92915050565b600080600080608085870312156115765761157561135d565b5b6000611584878288016113ab565b9450506020611595878288016113ab565b93505060406115a6878288016113ab565b92505060606115b7878288016113e1565b91505092959194509250565b6000602082840312156115d9576115d861135d565b5b60006115e7848285016113ab565b91505092915050565b6000602082840312156116065761160561135d565b5b6000611614848285016113e1565b91505092915050565b600080604083850312156116345761163361135d565b5b6000611642858286016113ab565b9250506020611653858286016113ab565b9150509250929050565b7f4e487b7100000000000000000000000000000000000000000000000000000000600052602260045260246000fd5b600060028204905060018216806116a457607f821691505b6020821081036116b7576116b661165d565b5b50919050565b7f76616c7565206973206c6f776572207468616e20312c20796f752063616e742060008201527f7472616e73666572000000000000000000000000000000000000000000000000602082015250565b60006117196028836112b6565b9150611724826116bd565b604082019050919050565b600060208201905081810360008301526117488161170c565b9050919050565b7f73656e6465722076616c7565206e6565647320746f206265206869676865722060008201527f7468616e2073656e64696e672076616c75650000000000000000000000000000602082015250565b60006117ab6032836112b6565b91506117b68261174f565b604082019050919050565b600060208201905081810360008301526117da8161179e565b9050919050565b7f4e487b7100000000000000000000000000000000000000000000000000000000600052601160045260246000fd5b600061181b826113c0565b9150611826836113c0565b925082820390508181111561183e5761183d6117e1565b5b92915050565b600061184f826113c0565b915061185a836113c0565b9250828201905080821115611872576118716117e1565b5b92915050565b7f616c6c6f7765642076616c7565206372697465726961206e65766572206d6574600082015250565b60006118ae6020836112b6565b91506118b982611878565b602082019050919050565b600060208201905081810360008301526118dd816118a1565b905091905056fea264697066735822122086059d979572c41bf71205657eb48ff987c8088efaefbb7d9aab03136c7be97f64736f6c63430008110033",
  "immutableReferences": {},
  "source": "// SPDX-License-Identifier: MIT\npragma solidity ^0.8.7;\n\nimport \"./Token.sol\";\nimport \"./BaseToken.sol\";\n\ncontract PokemonTDToken {\n\n    Token public token;\n    uint256 uintOfEthCanBuy;\n    address payable ownerWallet;\n    address ownerWalletN;\n\n    event Bought(uint256 amount);\n    event Sold(uint256 amount);\n\n    constructor() {\n        token = new BaseToken();\n        uintOfEthCanBuy = 1000;\n        ownerWallet = payable(msg.sender);\n        ownerWalletN = msg.sender;\n    }\n\n    /*\n    * Buy Tokens from original wallet\n    */\n    function buy() payable public {\n        uint256 amountBuy = msg.value;\n        uint256 pkBalance = token.balanceOf(address(this));\n\n        uint256 amountBuyTokenSize = msg.value;\n\n        require(amountBuy > 0, \"You need to mention Ether or Wei to buy\");\n        require(amountBuyTokenSize <= pkBalance, \"Not Enough PokemonTD Left\");\n\n        token.transfer(msg.sender, amountBuyTokenSize);\n        ownerWallet.transfer(amountBuy);\n        emit Bought(amountBuyTokenSize);\n    }\n\n    /*\n    * Sell Tokens from owner to original wallet\n    */\n    function sell(uint256 _amount) payable public {\n        require(_amount > 0, \"You need to mention PokemonTD amount\");\n        uint256 allowance = token.allowance(msg.sender, address(this));\n        require(allowance > _amount, \"Please check the token allowance\");\n        token.transferFrom(msg.sender, address(this), _amount);\n        payable(msg.sender).transfer(_amount / uintOfEthCanBuy);\n        emit Sold(_amount / uintOfEthCanBuy);\n    }\n\n    /*\n    * Transfer a token to winner. If looser dont have tokens, the token will be transferred from the \n    * original wallet\n    */\n    function transferSingleTokenToWinner(address _to, address _from, uint256 _amount) public returns(uint256 balance) {\n        require(_amount > 0, \"You need to mention PokemonTD amount\");\n\n        uint256 balanceFromUser = token.balanceOf(_from);\n        if (balanceFromUser >= _amount) {\n            token.transferFrom(_from, _to, _amount);\n        } else {\n            token.transfer(_to, _amount);\n        }\n        \n        uint256 balanceFromUserFinal = token.balanceOf(_from);\n\n        return balanceFromUserFinal;\n    }\n\n    function transferSingleTokenToWinnerWithSpender(address _to, address _from, address _spender, uint256 _amount) public returns(uint256 balance) {\n        require(_amount > 0, \"You need to mention PokemonTD amount\");\n\n        uint256 balanceFromUser = token.balanceOf(_from);\n        if (balanceFromUser >= _amount) {\n            token.transferFromWithSpender(_from, _to, _spender, _amount);\n        } else {\n            token.transfer(_to, _amount);\n        }\n        \n        uint256 balanceFromUserFinal = token.balanceOf(_from);\n\n        return balanceFromUserFinal;\n    }\n\n    function approveSpenderSection(address _spender, uint256 _value) public returns(uint256 balance) {\n        token.approve(_spender, _value);\n        return token.allowance(msg.sender, _spender);\n    }\n\n    function approveSpenderFromOwner(address _owner, address _spender, uint256 _value) public returns(uint256 balance) {\n        token.approveSpender(_spender, _owner, _value);(_spender, _owner, _value);\n        return token.allowance(_owner, _spender);\n    }\n\n    function getAllowance(address _owner, address _spender) public returns(uint256 balance) {\n        return token.allowance(_owner, _spender);\n    }\n\n    /*\n    * get balance of original wallet\n    */\n    function getAmountCheck() payable public returns(uint256 amount) {\n        uint256 pkBalance = token.balanceOf(address(this));\n        return pkBalance;\n    }\n\n    /*\n    * get balance of current user\n    */\n    function currentBalance() public returns(uint256 balance) {\n        return token.balanceOf(msg.sender);\n    }\n\n    /*\n    * get balance of a user\n    */\n    function currentBalanceUser(address _useraddress) public returns(uint256 balance) {\n        return token.balanceOf(_useraddress);\n    }\n\n    function decimals() public view returns (uint8) {\n        return token.decimals();\n    }\n\n    function name() public view returns (string memory) {\n        return token.name();\n    }\n\n    function symbol() public view returns (string memory) {\n        return token.symbol();\n    }\n\n    function balanceOf() public returns(uint256 balance) {\n        return token.balanceOf(msg.sender);\n    }\n\n}",
  "sourcePath": "/Volumes/Development/NewLearning/GamifiedTodoList/todo-gamified-token/contracts/PokemonTDToken.sol",
  "compiler": {
    "name": "solc",
    "version": "0.8.17+commit.8df45f5f.Emscripten.clang"
  },
  "schemaVersion": "3.4.11",
  "updatedAt": "2023-02-02T09:51:20.724Z",
  "networkType": "ethereum",
  "devdoc": {
    "kind": "dev",
    "methods": {},
    "version": 1
  },
  "userdoc": {
    "kind": "user",
    "methods": {},
    "version": 1
  }
}